:10008F00751900751A017D0B7C007F01120114AFE9
:10009F001AAE191201777D0C7C007F02120114AF8A
:1000AF001AAE191201777D0D7C007F03120114AF78
:1000BF001AAE191201777D0E7C007F04120114AF66
:1000CF001AAE191201777D0F7C007F05120114AF54
:1000DF001AAE191201777D067C007F06120114AF4C
:1000EF001AAE191201777D077C007F07120114AF3A
:1000FF001AAE19120177E4FDFC7F08120114AF1A32
:05010F00AE19020177AA
:10017700E4FDFCC3ED9FEE6480F8EC6480985013B7
:0C018700751B02751CC7D51CFDD51BFAAA
:070193000DBD00010C80E02E
:01019A002242
:10019B0011083F065B4F666D7D077F6F777C395E7D
:0301AB0079710067
:10011400EF14B40800505490012975F003A4C5836A
:1001240025F0C58373020141020145020149020120
:100134004D020151020159020161020169D2A480F8
:100144000ED2A48012D2A48016D2A4801AC2A4D241
:10015400A3D2A28016C2A4D2A3C2A2800EC2A4C2F9
:10016400A3D2A28006C2A4C2A3C2A274082DF8E638
:03017400F58022F1
:03000000020003F8
:0C000300787FE4F6D8FD75811C02004AED
:10000F0002008FE493A3F8E493A34003F68001F278
:10001F0008DFF48029E493A3F85407240CC8C333F2
:10002F00C4540F4420C8834004F456800146F6DFC1
:10003F00E4800B010204081020408090019BE47EB5
:10004F00019360BCA3FF543F30E509541FFEE493B6
:10005F00A360010ECF54C025E060A840B8E493A37D
:10006F00FAE493A3F8E493A3C8C582C8CAC583CAA8
:10007F00F0A3C8C582C8CAC583CADFE9DEE780BE60
:0101AE000050
:00000001FF
