:1004F10050415353574F52443A004F4B00455252CB
:0105010000F9
:1001B700750800750901E4F50AF50B1204DD7BFFEC
:0B01C7007A0479F17D017F01120469C8
:1001D200120003750C008F0DD3E50D940AE50C6433
:1001E200809480505AE50D9400E50C648094804020
:1001F2004EAE0C7C007D0A120331AA04AB057512C7
:10020200017D0A7F021204AAAE0CAF0D7C007D0AAA
:10021200120331AA04AB05AE0AAF0B7C007D0A12B1
:1002220002CAEF2BF50BEE3AF50A850912AB0BFA6F
:100232007D017F021204AA0509E50970020508E59D
:100242000D640B450C7012E50BB4D20DE50AB41E19
:10025200087BFF7A0479FB801AE50D640B450C706C
:1002620023E50B64D27004E50A641E60177BFF7AF3
:100272000479FE7D0E7F01120469E4F50AF50BF59F
:1002820008750901E50D640C450C60030201D2F505
:080292000AF50BF508750901DE
:03029A000201D28C
:06050200C2A58F80D2A704
:080508007F027EEFDEFEDFFC46
:0105100022C8
:0A051D00C2A6120502C2A7020508DB
:10048C00CFCDCFCECCCE1202DC7C007D0A1202DCAA
:04049C00ED2430FF1C
:0A04A000D2A6120502C2A702050849
:1004C700AE07BE0104ED148006BE0209ED243F44C9
:0604D70080FF12051D224A
:1004DD007F3812051D7F0C12051D7F0612051D7F2D
:0404ED000102051DE6
:0A052700AC031204C7AF040204A0E5
:060469008B0E8A0F8910C2
:10046F001204C7E4FDAB0EAA0FA9108D827583008D
:0C047F0012029DFF60061204A00D80E92F
:01048B00224E
:0C0412007F0AEA24FFFDE434FFFC7E00BA
:08041E008E138F148C158D164E
:100426007F017E00E4FBEBC39516E5156480F87446
:0E0436008098500AAC13AD141202CA0B80E875
:010444002295
:0404AA008A108B1118
:1004AE001204C7AA12EAD39400400D120412AC1023
:0804BE00AD1112048C1A80ED4F
:0104C6002213
:100367001204C7C3EA64809480400B7F2B1204A059
:100377008A1C8B1D800E7F2D1204A0C3E49BF51DE4
:10038700E49AF51CAA1BEAD39400400D120412ACA0
:090397001CAD1D12048C1A80ED4E
:0103A000223A
:0403A1008A208B2102
:1003A5001204C7AA22EAD3940040297F101204142C
:1003B500AC20AD21CFCDCFCECCCE1202DCEF540F89
:1003C500FEC3940AEE5004243080022437FF120441
:0403D500A01A80D119
:0103D9002201
:0403DA008A258B26BF
:1003DE001204C7AA27EAD394004028EA24FFFDE4BA
:1003EE0034FFFC7F027E0012041EAC25AD26CFCD5D
:1003FE00CFCECCCE1202DCEF54012430FF1204A07B
:03040E001A80D27F
:0104110022C8
:10044500E4FDFCC3ED9FEE6480F8EC6480985013E6
:0C0455007510027511C7D511FDD510FA05
:070461000DBD00010C80E05D
:010468002271
:10000300E4F50EF50F7590FFC2932097167F0AFE55
:100013001204453097FD7F0A7E00120445750E00D9
:10002300750F012096177F0A7E001204453096FD56
:100033007F0A7E00120445750E00750F0520951783
:100043007F0A7E001204453095FD7F0A7E0012046C
:1000530045750E00750F092094177F0A7E00120460
:10006300453094FD7F0A7E00120445750E00750F1E
:100073000DC2922097177F0A7E001204453097FD28
:100083007F0A7E00120445750E00750F0220961735
:100093007F0A7E001204453096FD7F0A7E0012041B
:1000A30045750E00750F062095177F0A7E00120412
:1000B300453095FD7F0A7E00120445750E00750FCD
:1000C3000A2094177F0A7E001204453094FD7F0AAC
:1000D3007E00120445750E00750F0EC2912097170E
:1000E3007F0A7E001204453097FD7F0A7E001204CA
:1000F30045750E00750F032096177F0A7E001204C4
:10010300453096FD7F0A7E00120445750E00750F7B
:10011300072095177F0A7E001204453095FD7F0A5C
:100123007E00120445750E00750F0B2094177F0A8D
:100133007E001204453094FD7F0A7E00120445754B
:100143000E00750F0FC2902097177F0A7E001204CE
:10015300453097FD7F0A7E00120445750E00750F2A
:10016300042096177F0A7E001204453096FD7F0A0D
:100173007E00120445750E00750F082095177F0A3F
:100183007E001204453095FD7F0A7E0012044575FA
:100193000E00750F0C2094177F0A7E001204453061
:1001A30094FD7F0A7E00120445750E00750F10AE94
:0301B3000EAF0F7D
:0101B6002226
:03000000020511E5
:0C051100787FE4F6D8FD7581270201B761
:10029D00BB010CE58229F582E5833AF583E0225016
:1002AD0006E92582F8E622BBFE06E92582F8E22260
:0D02BD00E58229F582E5833AF583E493227A
:1002CA00EF8DF0A4A8F0CF8CF0A428CE8DF0A42E48
:0202DA00FE2202
:1002DC00BC000BBE0029EF8DF084FFADF022E4CC06
:1002EC00F875F008EF2FFFEE33FEEC33FCEE9DECCF
:1002FC00984005FCEE9DFE0FD5F0E9E4CEFD22ED15
:10030C00F8F5F0EE8420D21CFEADF075F008EF2F5E
:10031C00FFED33FD4007985006D5F0F222C398FD4F
:05032C000FD5F0EA22EC
:10033100C2D5EC30E709B2D5E4C39DFDE49CFCEEE7
:1003410030E715B2D5E4C39FFFE49EFE1202DCC381
:10035100E49DFDE49CFC80031202DC30D507C3E47C
:060361009FFFE49EFE2256
:00000001FF
