:10017500E4F508F5091202340509E50970020508D8
:100185007FE87E0312019C750E03AB09AA087D0169
:070195007F0112020180E16D
:06024800C2A58F80D2A7C1
:08024E007F027EEFDEFEDFFC03
:010256002285
:0A026300C2A6120248C2A702024E12
:1001E300CFCDCFCECCCE1200427C007D0A1200428E
:0401F300ED2430FFC8
:0A01F700D2A6120248C2A702024E6F
:10021E00AE07BE0104ED148006BE0209ED243F4474
:06022E0080FF12026322B2
:100234007F381202637F0C1202637F061202637F0F
:04024400010202634E
:0A026D00AC0312021EAF040201F7F9
:0601C0008B248A2589262C
:1001C60012021EE4FDAB24AA25A9268D82758300A2
:0C01D600120003FF60061201F70D80E923
:0101E20022FA
:0C0142007F0AEA24FFFDE434FFFC7E008D
:08014E008E0F8F108C118D1231
:100156007F017E00E4FBEBC39512E5116480F87421
:0E0166008098500AAC0FAD101200300B80E8EC
:010174002268
:040201008A0C8B0DCB
:1002050012021EAA0EEAD39400400D120142AC0C54
:08021500AD0D1201E31A80EDAA
:01021D0022BE
:1000970012021EC3EA64809480400B7F2B1201F783
:1000A7008A188B19800E7F2D1201F7C3E49BF5196F
:1000B700E49AF518AA17EAD39400400D120142AC4E
:0900C70018AD191201E31A80EDD5
:0100D000220D
:0400D1008A1C8B1DDD
:1000D50012021EAA1EEAD3940040297F1012014481
:1000E500AC1CAD1DCFCDCFCECCCE120042EF540F00
:1000F500FEC3940AEE5004243080022437FF120117
:04010500F71A80D194
:0101090022D3
:04010A008A218B2299
:10010E0012021EAA23EAD394004028EA24FFFDE43B
:10011E0034FFFC7F027E0012014EAC21AD22CFCD0A
:10012E00CFCECCCE120042EF54012430FF1201F795
:03013E001A80D252
:01014100229B
:10019C00E4FDFCC3ED9FEE6480F8EC648098501392
:0C01AC00750A02750BC7D50BFDD50AFAC9
:0701B8000DBD00010C80E009
:0101BF00221D
:03000000020257A2
:0C025700787FE4F6D8FD75812602017561
:10000300BB010CE58229F582E5833AF583E02250B2
:1000130006E92582F8E622BBFE06E92582F8E222FC
:0D002300E58229F582E5833AF583E4932216
:10003000EF8DF0A4A8F0CF8CF0A428CE8DF0A42EE4
:02004000FE229E
:10004200BC000BBE0029EF8DF084FFADF022E4CCA2
:10005200F875F008EF2FFFEE33FEEC33FCEE9DEC6B
:10006200984005FCEE9DFE0FD5F0E9E4CEFD22EDB1
:10007200F8F5F0EE8420D21CFEADF075F008EF2FFB
:10008200FFED33FD4007985006D5F0F222C398FDEC
:050092000FD5F0EA2289
:00000001FF
