:1005590020202D20202D20200020203A20203A2064
:02056900200070
:1002AA001205451205981200037BFF7A0579597DDC
:1002BA00017F011204D17BFF7A0579627D017F02F9
:1002CA001204D11200EFE518FB7A00750C027D01C9
:1002DA007F01120512E519FB7A00750C027D047F75
:1002EA0001120512E51AFB7A00750C027D077F01DF
:1002FA00120512E51BFB7A00750C027D017F0212C2
:10030A000512E51CFB7A00750C027D047F021205BA
:10031A0012E51DFB7A00750C027D077F0212051299
:02032A0080A1B0
:06056B00C2A58F80D2A79B
:080571007F027EEFDEFEDFFCDD
:01057900225F
:0A057A00C2A612056BC2A7020571AC
:1004F400CFCDCFCECCCE1201C97C007D0A1201C96A
:04050400ED2430FFB3
:0A050800D2A612056BC2A70205710E
:10052F00AE07BE0104ED148006BE0209ED243F4460
:06053F0080FF12057A2284
:100545007F3812057A7F0C12057A7F0612057A7FAD
:040555000102057A20
:0A058400AC0312052FAF04020508B6
:0604D1008B088A09890A6C
:1004D70012052FE4FDAB08AA09A90A8D82758300CE
:0C04E70012018AFF60061205080D80E972
:0104F30022E6
:0C049E007F0AEA24FFFDE434FFFC7E002E
:0804AA008E0D8F0E8C0F8D10DA
:1004B2007F017E00E4FBEBC39510E50F6480F874C6
:0E04C2008098500AAC0DAD0E1201B70B80E809
:0104D0002209
:040512008A0A8B0BBB
:1005160012052FAA0CEAD39400400D12049EAC0AD1
:08052600AD0B1204F41A80ED84
:01052E0022AA
:1003F30012052FC3EA64809480400B7F2B120508FB
:100403008A168B17800E7F2D120508C3E49BF51700
:10041300E49AF516AA15EAD39400400D12049EAC93
:0904230016AD171204F41A80ED65
:01042C0022AD
:04042D008A218B2273
:1004310012052FAA23EAD3940040297F101204A0A9
:10044100AC21AD22CFCDCFCECCCE1201C9EF540F0E
:10045100FEC3940AEE5004243080022437FF1205B3
:04046100081A80D124
:010465002274
:040466008A268B2730
:10046A0012052FAA28EAD394004028EA24FFFDE4C3
:10047A0034FFFC7F027E001204AAAC26AD27CFCD42
:10048A00CFCECCCE1201C9EF54012430FF12050899
:03049A001A80D2F3
:01049D00223C
:09058E000718180C1F173B370277
:05059800C2B5C2B6224D
:0803920025F0FDEC3EFC7E00AD
:08039A008E088F09AB05AA04CF
:1003A200D2B5E4FD7E007401A805088005C333CEF2
:1003B20033CED8F9FFE5085EFEE5095F4E24FF92D1
:1003C200B4D2B6C2B60DBD08DBE4FD7E007401A84E
:1003D20005088005C333CE33CED8F9FFEE5AFEEFBF
:1003E2005B4E24FF92B4D2B6C2B60DBD08DDC2B5D3
:0103F20022E8
:04032C008E088F099F
:10033000E4FD430901D2B5FBFAAF037E007401A8C6
:1003400007088005C333CE33CED8F9FFE5085EFE3B
:10035000E5095F4E24FF92B4C2B6D2B60BBB0001D2
:100360000AEB64084A70D2E4FAFBD2B6C2B630B4E3
:100370000FAF03A8077401088002C333D8FC4205FD
:100380000BBB00010AEB64084A70DFC2B5C2B4AF10
:010390000567
:010391002249
:10000300E4FDFC7F8EFE12039AE51875F00A8475F1
:10001300F010A4FFAEF0E51875F00A84EF7F8C12A0
:100023000392E51975F00A8475F010A4FFAEF0E5AC
:100033001975F00A847C00EF7F88120392E51A7524
:10004300F00A8475F010A4FFAEF0E51A75F00A8487
:100053007C00EF25F0FDEC3EFC7F867E0012039AC8
:10006300E51B75F00A8475F010A4FFAEF0E51B756F
:10007300F00A847C00EF25F0FDEC3EFC7F847E00DB
:1000830012039AE51C75F00A8475F010A4FFAEF014
:10009300E51C75F00A847C00EF25F0FDEC3EFC7F47
:1000A300827E0012039AE51D75F00A8475F010A490
:1000B300FFAEF0E51D75F00A847C00EF25F0FDEC42
:1000C3003EFC7F807E0012039AE51E75F00A84755C
:1000D300F010A4FFAEF0E51E75F00A847C00EF2556
:0C00E300F0FDEC3EFC7F8A7E0002039AD8
:1000EF007F8C7E0012032CEFC4540F75F00AA4FE10
:1000FF00EF540F2EF5187F887E0012032CEFC45497
:10010F000F75F00AA4FEEF540F2EF5197F867E00AF
:10011F0012032CEFC4540F75F00AA4FEEF540F2EE8
:10012F00F51A7F847E0012032CEFC4540F75F00A6A
:10013F00A4FEEF540F2EF51B7F827E0012032CEFCF
:10014F00C4540F75F00AA4FEEF540F2EF51C7F80D8
:10015F007E0012032CEFC4540F75F00AA4FEEF5467
:10016F000F2EF51D7F8A7E0012032CEFC4540F75DE
:0A017F00F00AA4FEEF540F2EF51E47
:010189002253
:0300000002021EDB
:0C021E00787FE4F6D8FD758128020265A7
:10018A00BB010CE58229F582E5833AF583E022502A
:10019A0006E92582F8E622BBFE06E92582F8E22274
:0D01AA00E58229F582E5833AF583E493228E
:1001B700EF8DF0A4A8F0CF8CF0A428CE8DF0A42E5C
:0201C700FE2216
:1001C900BC000BBE0029EF8DF084FFADF022E4CC1A
:1001D900F875F008EF2FFFEE33FEEC33FCEE9DECE3
:1001E900984005FCEE9DFE0FD5F0E9E4CEFD22ED29
:1001F900F8F5F0EE8420D21CFEADF075F008EF2F73
:10020900FFED33FD4007985006D5F0F222C398FD63
:050219000FD5F0EA2200
:10022A000202AAE493A3F8E493A34003F68001F23E
:10023A0008DFF48029E493A3F85407240CC8C333D5
:10024A00C4540F4420C8834004F456800146F6DFA4
:10025A00E4800B010204081020408090058EE47EA1
:10026A00019360BCA3FF543F30E509541FFEE49399
:10027A00A360010ECF54C025E060A840B8E493A360
:10028A00FAE493A3F8E493A3C8C582C8CAC583CA8B
:10029A00F0A3C8C582C8CAC583CADFE9DEE780BE43
:010597000063
:00000001FF
