:1001CA0012031C75A0FE1202EF1200A28F21E52174
:1001DA0060F7B4010C0520E520D394014003E4F54F
:1001EA0020E521B40202B2A2E521B40302B2A3E5DA
:0801FA0021B404D5B2A480D1A8
:03000B00020103EC
:0B010300C0E0C0D075D000C000C007F5
:10010E00758A66758CFC051FE51F7002051EC3946B
:10011E00F4E51E94014029751E00751F00E5207040
:10012E000DAFA07801EF08800123D8FDF5A0E520E2
:10013E00B4010DAFA07801EF08800103D8FDF5A042
:09014E00D007D000D0D0D0E0327F
:10026D00E4FDFCC3ED9FEE6480F8EC6480985013C0
:0C027D00752A02752BC7D52BFDD52AFA77
:070289000DBD00010C80E037
:01029000224B
:1002EF005389F0438901758A66758CFCC28DD28C57
:0702FF00D2A9D2AFC2B9225F
:1000A200E4F52920B1137F0AFE12026D30B1FD7F03
:1000B2000A7E0012026D75290120B0147F0A7E00AB
:1000C20012026D30B0FD7F0A7E0012026D752902A8
:1000D20020B2147F0A7E0012026D30B2FD7F0A7ECA
:1000E2000012026D75290320B3147F0A7E001202EA
:1000F2006D30B3FD7F0A7E0012026D752904AF29AF
:0101020022DA
:06033000C2A58F80D2A7D8
:080336007F027EEFDEFEDFFC1A
:01033E00229C
:0A034B00C2A6120330C2A702033657
:1002B400CFCDCFCECCCE12004D7C007D0A12004DA6
:0402C400ED2430FFF6
:0A02C800D2A6120330C2A7020336CB
:10030600AE07BE0104ED148006BE0209ED243F448B
:0603160080FF12034B22E0
:10031C007F3812034B7F0C12034B7F0612034B7F6B
:04032C000102034B7C
:0A035500AC03120306AF040202C855
:060291008B268A27892854
:10029700120306E4FDAB26AA27A9288D82758300E1
:0C02A70012000EFF60061202C80D80E974
:0102B3002228
:0C023A007F0AEA24FFFDE434FFFC7E0094
:080246008E228F238C248D25EC
:10024E007F017E00E4FBEBC39525E5246480F87402
:0E025E008098500AAC22AD2312003B0B80E8C2
:01026C00226F
:0402D2008A118B12F0
:1002D600120306AA13EAD39400400D12023AAC1197
:0802E600AD121202B41A80ED02
:0102EE0022ED
:10015700120306C3EA64809480400B7F2B1202C807
:100167008A0D8B0E800E7F2D1202C8C3E49BF50EFD
:10017700E49AF50DAA0CEAD39400400D12023AACAA
:090187000DAD0E1202B41A80ED58
:01019000224C
:040191008A168B1728
:10019500120306AA18EAD3940040297F1012023CE4
:1001A500AC16AD17CFCDCFCECCCE12004DEF540F40
:1001B500FEC3940AEE5004243080022437FF120255
:0401C500C81A80D103
:0101C9002213
:040202008A1B8B1CAC
:10020600120306AA1DEAD394004028EA24FFFDE45F
:1002160034FFFC7F027E00120246AC1BAD1CCFCD24
:10022600CFCECCCE12004DEF54012430FF1202C8BF
:030236001A80D259
:0102390022A2
:0300000002033FB9
:0C033F00787FE4F6D8FD75812B0201CA1E
:10000E00BB010CE58229F582E5833AF583E02250A7
:10001E0006E92582F8E622BBFE06E92582F8E222F1
:0D002E00E58229F582E5833AF583E493220B
:10003B00EF8DF0A4A8F0CF8CF0A428CE8DF0A42ED9
:02004B00FE2293
:10004D00BC000BBE0029EF8DF084FFADF022E4CC97
:10005D00F875F008EF2FFFEE33FEEC33FCEE9DEC60
:10006D00984005FCEE9DFE0FD5F0E9E4CEFD22EDA6
:10007D00F8F5F0EE8420D21CFEADF075F008EF2FF0
:10008D00FFED33FD4007985006D5F0F222C398FDE1
:05009D000FD5F0EA227E
:00000001FF
