:030370001203E293
:100373001200037508008F09E509450860F2750E40
:0C03830002AB09AA087D017F011203AF44
:02038F0080E20A
:0603F600C2A58F80D2A712
:0803FC007F027EEFDEFEDFFC54
:0104040022D5
:0A041100C2A61203F6C2A70203FC04
:10039100CFCDCFCECCCE1201F67C007D0A1201F674
:0403A100ED2430FF18
:0A03A500D2A61203F6C2A70203FC61
:1003CC00AE07BE0104ED148006BE0209ED243F44C5
:0603DC0080FF1204112253
:1003E2007F381204117F0C1204117F061204117F50
:0403F20001020411EF
:0A041B00AC031203CCAF040203A5EA
:06034D008B248A2589269D
:100353001203CCE4FDAB24AA25A9268D8275830064
:0C0363001201B7FF60061203A50D80E92F
:01036F00226B
:0C02F6007F0AEA24FFFDE434FFFC7E00D8
:080302008E0F8F108C118D127B
:10030A007F017E00E4FBEBC39512E5116480F8746B
:0E031A008098500AAC0FAD101201E40B80E881
:0103280022B2
:0403AF008A0C8B0D1C
:1003B3001203CCAA0EEAD39400400D1202F6AC0C41
:0803C300AD0D1203911A80ED4B
:0103CB00220F
:10024B001203CCC3EA64809480400B7F2B1203A56E
:10025B008A188B19800E7F2D1203A5C3E49BF51909
:10026B00E49AF518AA17EAD39400400D1202F6ACE3
:09027B0018AD191203911A80ED6F
:010284002257
:040285008A1C8B1D27
:100289001203CCAA1EEAD3940040297F101202F867
:10029900AC1CAD1DCFCDCFCECCCE1201F6EF540F95
:1002A900FEC3940AEE5004243080022437FF12035F
:0402B900A51A80D131
:0102BD00221E
:0402BE008A218B22E4
:1002C2001203CCAA23EAD394004028EA24FFFDE4D7
:1002D20034FFFC7F027E00120302AC21AD22CFCD9F
:1002E200CFCECCCE1201F6EF54012430FF1203A57B
:0302F2001A80D29D
:0102F50022E6
:10032900E4FDFCC3ED9FEE6480F8EC648098501303
:0C033900750C02750DC7D50DFDD50CFA32
:070345000DBD00010C80E07A
:01034C00228E
:10000300E4F50AF50B7590FFC2932097167F14FE53
:100013001203293097FD7F147E00120329750A000D
:10002300750B012096177F147E001203293096FD6D
:100033007F147E00120329750A00750B052095179E
:100043007F147E001203293095FD7F147E00120376
:1000530029750A00750B092094177F147E0012037B
:10006300293094FD7F147E00120329750A00750B55
:100073000DC2922097177F147E001203293097FD3B
:100083007F147E00120329750A00750B0220961750
:100093007F147E001203293096FD7F147E00120325
:1000A30029750A00750B062095177F147E0012032D
:1000B300293095FD7F147E00120329750A00750B04
:1000C3000A2094177F147E001203293094FD7F14B5
:1000D3007E00120329750A00750B0EC29120971733
:1000E3007F147E001203293097FD7F147E001203D4
:1000F30029750A00750B032096177F147E001203DF
:10010300293096FD7F147E00120329750A00750BB2
:10011300072095177F147E001203293095FD7F1465
:100123007E00120329750A00750B0B2094177F14A8
:100133007E001203293094FD7F147E00120329757B
:100143000A00750B0FC2902097177F147E001203CD
:10015300293097FD7F147E00120329750A00750B61
:10016300042096177F147E001203293096FD7F1416
:100173007E00120329750A00750B082095177F145A
:100183007E001203293095FD7F147E00120329752A
:100193000A00750B0C2094177F147E00120329307C
:1001A30094FD7F147E00120329750A00750B10AEAF
:0301B3000AAF0B85
:0101B6002226
:03000000020405F2
:0C040500787FE4F6D8FD758126020370B4
:1001B700BB010CE58229F582E5833AF583E02250FD
:1001C70006E92582F8E622BBFE06E92582F8E22247
:0D01D700E58229F582E5833AF583E4932261
:1001E400EF8DF0A4A8F0CF8CF0A428CE8DF0A42E2F
:0201F400FE22E9
:1001F600BC000BBE0029EF8DF084FFADF022E4CCED
:10020600F875F008EF2FFFEE33FEEC33FCEE9DECB5
:10021600984005FCEE9DFE0FD5F0E9E4CEFD22EDFB
:10022600F8F5F0EE8420D21CFEADF075F008EF2F45
:10023600FFED33FD4007985006D5F0F222C398FD36
:050246000FD5F0EA22D3
:00000001FF
