:10016C0011083F065B4F666D7D077F6F777C395EAC
:03017C0079710096
:070147007C0012008F7F0114
:10014E00E4FDFCC3ED9FEE6480F8EC648098500DE6
:06015E0075192BD519FDF7
:070164000DBD00010C80E657
:01016B002271
:10008F00EF14B4080050549000A475F003A4C58376
:10009F0025F0C583730200BC0200C00200C4020039
:1000AF00C80200CC0200D40200DC0200E4D2A4801B
:1000BF000ED2A48012D2A48016D2A4801AC2A4D2C7
:1000CF00A3D2A28016C2A4D2A3C2A2800EC2A4C27F
:1000DF00A3D2A28006C2A4C2A3C2A274082DF8E6BE
:0300EF00F5802277
:1000F2007B017A007D017C007F0112008F7E00125D
:10010200014E7D027C000F12008F1F12014E7D03F3
:100112007F031201477D047F041201477D057C00A5
:100122007F051201497D067C007F061201497D0789
:100132007C007F071201497D087C007F0812008F36
:050142007F0102014EE7
:03000000020003F8
:0C000300787FE4F6D8FD75811A02004AEF
:10000F000200F2E493A3F8E493A34003F68001F215
:10001F0008DFF48029E493A3F85407240CC8C333F2
:10002F00C4540F4420C8834004F456800146F6DFC1
:10003F00E4800B010204081020408090016CE47EE4
:10004F00019360BCA3FF543F30E509541FFEE493B6
:10005F00A360010ECF54C025E060A840B8E493A37D
:10006F00FAE493A3F8E493A3C8C582C8CAC583CAA8
:10007F00F0A3C8C582C8CAC583CADFE9DEE780BE60
:01017F00007F
:00000001FF
