:1000C30075A0FE12011C12000E8F0BE50B60F7B436
:1000D300010C050AE50AD394014003E4F50AE50B94
:1000E300B40202B2A2E50BB40302B2A3E50BB4045B
:0500F300D5B2A480D18C
:03000B0002006F81
:0B006F00C0E0C0D075D000C000C0078A
:10007A00758A66758CFC0509E50970020508C39442
:10008A00F4E50894014029750800750900E50A702D
:10009A000DAFA07801EF08800123D8FDF5A0E50A8D
:1000AA00B4010DAFA07801EF08800103D8FDF5A0D7
:0900BA00D007D000D0D0D0E03214
:1000F800E4FDFCC3ED9FEE6480F8EC648098501337
:0C010800750D02750EC7D50EFDD50DFA61
:070114000DBD00010C80E0AD
:01011B0022C1
:10011C005389F0438901758A66758CFCC28DD28C2B
:07012C00D2A9D2AFC2B92233
:10000E00E4F50C20B1137F0AFE1200F830B1FD7F2B
:10001E000A7E001200F8750C0120B0147F0A7E00D3
:10002E001200F830B0FD7F0A7E001200F8750C0247
:10003E0020B2147F0A7E001200F830B2FD7F0A7ED5
:10004E00001200F8750C0320B3147F0A7E00120014
:10005E00F830B3FD7F0A7E001200F8750C04AF0C69
:01006E00226F
:03000000020133C7
:0C013300787FE4F6D8FD75810E0200C351
:00000001FF
