:02005400A907FA
:10005600E4FBFAAF037E007480A807088006CEA2F0
:10006600E713CE13D8F8FFE9FDEF5D24FF92B4D273
:10007600B6C2B60BBB00010AEB64084A70D5D2B50E
:02008600C2B501
:010088002255
:060089007D787C007E0082
:10008F008F82AF05120054AF82A8077480088002D8
:10009F00C313D8FCF4F5807F017E001200B1758088
:0200AF00FF222E
:10000300C2B6C2B57D307C00E4FFFE12008F7F01D3
:100013001200897D7C7C007F027E0012008F7D3E72
:100023007C007F037E0012008F7D3E7C007F047E78
:100033000012008F7D7C7C007F057E0012008F7F85
:10004300061200897D307C007F077E0012008F80BE
:01005300B3F9
:1000B100E4FDFCC3ED9FEE6480F8EC64809850137E
:0C00C1007508027509C7D509FDD508FABD
:0700CD000DBD00010C80E0F5
:0100D4002209
:030000000200D526
:0C00D500787FE4F6D8FD75810902000375
:00000001FF
