:040053007F147E0098
:10005700E4FDFCC3ED9FEE6480F8EC6480985013D8
:0C0067007508027509C7D509FDD508FA17
:070073000DBD00010C80E04F
:01007A002263
:10000300E4FB20B12212005330B1FD120053EBC3C5
:1000130094084002E4FBA8037401088002C333D8A8
:10002300FCF4F5A00B80DB20B2D812005330B2FDF4
:10003300120053EBD3940050027B09C374099BFF56
:10004300F87480088002C313D8FCF4F5A01B80B2B7
:0300000002007B80
:0C007B00787FE4F6D8FD758109020003CF
:00000001FF
