:1008C90020200020202D20202D20200020203A202B
:0508D900203A20200080
:10066600120383E518FB7A00750C027D017F0112E7
:10067600087FE519FB7A00750C027D047F011208DC
:100686007FE51AFB7A00750C027D077F0112087F51
:10069600E51BFB7A00750C027D017F0212087FE5DF
:1006A6001CFB7A00750C027D047F0212087FE51D93
:0D06B600FB7A00750C027D077F0202087FB1
:10000E00E524B4020B0521E52175F0068485F02167
:10001E00E524640360030200CF74182521F806E579
:10002E0018D394634003E4F518E519D3940C4003F8
:10003E00751901E51964016023E5196403601DE576
:10004E001964056017E51964076011E51964086005
:10005E000BE519640A6005E519B40C09E51AD39489
:10006E001F4040803BE51964046011E51964066089
:10007E000BE51964096005E519B40B09E51AD3946B
:10008E001E4020801BE519B40219E51854037009AF
:10009E00E51AD3941D400C8007E51AD3941C400337
:1000AE00751A01E51BD394174003E4F51BE51CD329
:1000BE00943B4003E4F51CE51DD3943B4003E4F56B
:1000CE001DE524640460030201A974182521F816A5
:1000DE00E518C394005003751863E519C3940150D5
:1000EE000375190CE51964016023E5196403601D9D
:1000FE00E51964056017E51964076011E5196408D0
:10010E00600BE519640A6005E519B40C13E51AC312
:10011E0094015003751A1FE51AD3941F405F805A3D
:10012E00E51964046011E5196406600BE5196409AC
:10013E006005E519B40B13E51AC394015003751A43
:10014E001EE51AD3941E40358030E5196402702DD9
:10015E00E51854037013E51AC394015003751A1D64
:10016E00E51AD3941D40168011E51AC3940150036D
:10017E00751A1CE51AD3941C4003751A01E51BC3AE
:10018E0094005003751B17E51CC394005003751C97
:10019E003BE51DC394005003751D3BE5217014E52E
:1001AE0022B4010F7BFF7A0879C97D017F01120805
:1001BE003E800FE518FB7A00750C027D017F01125F
:1001CE00087FE521B40114E522B4010F7BFF7A0804
:1001DE0079C97D047F0112083E800FE519FB7A0074
:1001EE00750C027D047F0112087FE521B40214E52F
:1001FE0022B4010F7BFF7A0879C97D077F011208AF
:10020E003E800FE51AFB7A00750C027D077F011206
:10021E00087FE521B40314E522B4010F7BFF7A08B1
:10022E0079C97D017F0212083E800FE51BFB7A0023
:10023E00750C027D017F0212087FE521B40414E5DE
:10024E0022B4010F7BFF7A0879C97D047F02120860
:10025E003E800FE51CFB7A00750C027D047F0212B6
:10026E00087FE521B40512E522B4010D7BFF7A0863
:10027E0079C97D077F0202083EE51DFB7A00750CE9
:09028E00027D077F0212087F22A5
:1006C3001208DE12000312089C1202977BFF7A08BD
:1006D30079CC7D017F0112083E7BFF7A0879D57DB5
:1006E300017F0212083E1206058F24E524B401118E
:1006F300E52370057523018008E523B40103E4F5C0
:1007030023E5231460080470DD12066680D8120006
:030713000E80D382
:03000B000207F4F5
:0407F400C0E0C0D0D1
:1007F800758A18758CFC0520E5207002051FC394C6
:0D080800F4E51F94014006751F00752000E7
:05081500D0D0D0E0325C
:0608F200C2A58F80D2A711
:0808F8007F027EEFDEFEDFFC53
:0109000022D4
:0A090100C2A61208F2C2A70208F80D
:10086100CFCDCFCECCCE12045D7C007D0A12045DCB
:04087100ED2430FF43
:0A087500D2A61208F2C2A70208F88A
:1008B300AE07BE0104ED148006BE0209ED243F44D9
:0608C30080FF1209012272
:1008DE007F381209017F0C1209017F061209017F70
:0408EE0001020901F9
:0A090B00AC031208B3AF0402087534
:06083E008B088A09890AFB
:100844001208B3E4FDAB08AA09A90A8D82758300D6
:0C08540012041EFF60061208750D80E9FA
:010860002275
:0C07C1007F0AEA24FFFDE434FFFC7E0008
:0807CD008E0D8F0E8C0F8D10B4
:1007D5007F017E00E4FBEBC39510E50F6480F874A0
:0E07E5008098500AAC0DAD0E12044B0B80E84C
:0107F30022E3
:04087F008A0A8B0B4B
:100883001208B3AA0CEAD39400400D1207C1AC0AB4
:08089300AD0B1208611A80EDA3
:01089B00223A
:100716001208B3C3EA64809480400B7F2B120875DD
:100726008A168B17800E7F2D120875C3E49BF5176A
:10073600E49AF516AA15EAD39400400D1207C1AC47
:0907460016AD171208611A80EDCE
:01074F002287
:040750008A278B2841
:100754001208B3AA29EAD3940040297F101207C3D0
:10076400AC27AD28CFCDCFCECCCE12045DEF540F45
:10077400FEC3940AEE5004243080022437FF12088A
:04078400751A80D191
:01078800224E
:040789008A2C8B2DFE
:10078D001208B3AA2EEAD394004028EA24FFFDE410
:10079D0034FFFC7F027E001207CDAC2CAD2DCFCDEA
:1007AD00CFCECCCE12045DEF54012430FF1208756C
:0307BD001A80D2CD
:0107C0002216
:10081A00E4FDFCC3ED9FEE6480F8EC64809850130D
:0C082A00750902750AC7D50AFDD509FA48
:070836000DBD00010C80E084
:01083D002298
:090915000718180C1F173B3702EC
:05000300C2B5C2B622E7
:0805A40025F0FDEC3EFC7E0099
:0805AC008E088F09AB05AA04BB
:1005B400D2B5E4FD74017E00A805088005C333CEDE
:1005C40033CED8F9FFE5085EFEE5095F4E24FF92BD
:1005D400B4D2B6C2B60DBD08DBE4FD74017E00A83A
:1005E40005088005C333CE33CED8F9FFEE5AFEEFAB
:1005F4005B4E24FF92B4D2B6C2B60DBD08DDC2B5BF
:0106040022D3
:04053E008E088F098B
:10054200E4FD430901D2B5FBFAAF0374017E00A8B2
:1005520007088005C333CE33CED8F9FFE5085EFE27
:10056200E5095F4E24FF92B4C2B6D2B60BBB0001BE
:100572000AEB64084A70D2E4FAFBD2B6C2B630B4CF
:100582000FAF037401A807088002C333D8FC4205E9
:100592000BBB00010AEB64084A70DFC2B5C2B4AFFC
:0105A2000553
:0105A3002235
:10029700E4FDFC7F8EFE1205ACE51875F00A847547
:1002A700F010A4FFAEF0E51875F00A84EF7F8C120A
:1002B70005A4E51975F00A8475F010A4FFAEF0E502
:1002C7001975F00A847C00EF7F881205A4E51A757A
:1002D700F00A8475F010A4FFAEF0E51A75F00A84F1
:1002E7007C00EF25F0FDEC3EFC7F867E001205AC1E
:1002F700E51B75F00A8475F010A4FFAEF0E51B75D9
:10030700F00A847C00EF25F0FDEC3EFC7F847E0044
:100317001205ACE51C75F00A8475F010A4FFAEF069
:10032700E51C75F00A847C00EF25F0FDEC3EFC7FB0
:10033700827E001205ACE51D75F00A8475F010A4E5
:10034700FFAEF0E51D75F00A847C00EF25F0FDECAB
:100357003EFC7F807E001205ACE51E75F00A8475B1
:10036700F010A4FFAEF0E51E75F00A847C00EF25BF
:0C037700F0FDEC3EFC7F8A7E000205AC2D
:100383007F8C7E0012053EEFC4540F75F00AA4FE65
:10039300EF540F2EF5187F887E0012053EEFC454EC
:1003A3000F75F00AA4FEEF540F2EF5197F867E0019
:1003B30012053EEFC4540F75F00AA4FEEF540F2E3E
:1003C300F51A7F847E0012053EEFC4540F75F00AC0
:1003D300A4FEEF540F2EF51B7F827E0012053EEF25
:1003E300C4540F75F00AA4FEEF540F2EF51C7F8042
:1003F3007E0012053EEFC4540F75F00AA4FEEF54BD
:100403000F2EF51D7F8A7E0012053EEFC4540F7533
:0A041300F00AA4FEEF540F2EF51EB0
:01041D0022BC
:10060500E4F50820B1137F0AFE12081A30B1FD7F08
:100615000A7E0012081A75080120B0147F0A7E00B0
:1006250012081A30B0FD7F0A7E0012081A750802FA
:1006350020B2147F0A7E0012081A30B2FD7F0A7EAE
:100645000012081A75080320B3147F0A7E001208E9
:100655001A30B3FD7F0A7E0012081A750804AF0828
:010665002272
:10089C005389F0438901758A66758CFCC28DD28CA4
:0708AC00D2A9D2AFC2B922AC
:030000000204B245
:0C04B200787FE4F6D8FD75812E0204F975
:10041E00BB010CE58229F582E5833AF583E0225093
:10042E0006E92582F8E622BBFE06E92582F8E222DD
:0D043E00E58229F582E5833AF583E49322F7
:10044B00EF8DF0A4A8F0CF8CF0A428CE8DF0A42EC5
:02045B00FE227F
:10045D00BC000BBE0029EF8DF084FFADF022E4CC83
:10046D00F875F008EF2FFFEE33FEEC33FCEE9DEC4C
:10047D00984005FCEE9DFE0FD5F0E9E4CEFD22ED92
:10048D00F8F5F0EE8420D21CFEADF075F008EF2FDC
:10049D00FFED33FD4007985006D5F0F222C398FDCD
:0504AD000FD5F0EA226A
:1004BE000206C3E493A3F8E493A34003F68001F28B
:1004CE0008DFF48029E493A3F85407240CC8C3333F
:1004DE00C4540F4420C8834004F456800146F6DF0E
:1004EE00E4800B0102040810204080900915E47E80
:1004FE00019360BCA3FF543F30E509541FFEE49303
:10050E00A360010ECF54C025E060A840B8E493A3C9
:10051E00FAE493A3F8E493A3C8C582C8CAC583CAF4
:10052E00F0A3C8C582C8CAC583CADFE9DEE780BEAC
:01091E0000D8
:00000001FF
