:0300E500010A000D
:1000CA001200B3AF0A1200DD050A7FE87E031200B0
:0300DA008F80F024
:10008F00E4FDFCC3ED9FEE6480F8EC6480985013A0
:0C009F007508027509C7D509FDD508FADF
:0700AB000DBD00010C80E017
:0100B200222B
:1000B30043878075985053890F438920758BF47556
:0700C3008DF4C2ABD28E22C6
:0800DD008F993099FDC29922B0
:03000000020003F8
:0C000300787FE4F6D8FD75810A02004AFF
:10000F000200CAE493A3F8E493A34003F68001F23D
:10001F0008DFF48029E493A3F85407240CC8C333F2
:10002F00C4540F4420C8834004F456800146F6DFC1
:10003F00E4800B01020408102040809000E5E47E6C
:10004F00019360BCA3FF543F30E509541FFEE493B6
:10005F00A360010ECF54C025E060A840B8E493A37D
:10006F00FAE493A3F8E493A3C8C582C8CAC583CAA8
:10007F00F0A3C8C582C8CAC583CADFE9DEE780BE60
:0100E8000017
:00000001FF
