:020000040800F2
:10000000183F002069010008610500085905000833
:100010005D050008ED030008C10A000800000000AB
:10002000000000000000000000000000ED090008D2
:10003000B504000800000000630500088101000805
:100040008301000883010008830100088301000880
:100050008301000883010008830100088301000870
:1000600000000000F103000883010008830100087C
:1000700083010008830100088301000800000000DC
:10008000610A0008890A0008000000005D0A0008F3
:100090008301000883010008830100088301000830
:1000A0008301000883010008830100088301000820
:1000B00083010008000000000000000000000000B4
:1000C00083010008000000008301000800F002F82E
:1000D00000F03AF80AA090E8000C82448344AAF1A8
:1000E0000107DA4501D100F02FF8AFF2090EBAE8A6
:1000F0000F0013F0010F18BFFB1A43F0010318475C
:10010000ECCA00000CCB0000103A24BF78C878C1BC
:10011000FAD8520724BF30C830C144BF04680C600D
:10012000704700000023002400250026103A28BF55
:1001300078C1FBD8520728BF30C148BF0B60704759
:100140001FB51FBD10B510BD00F0BCF81146FFF77C
:10015000F7FF02F0CFFE00F0DAF803B4FFF7F2FF8A
:1001600003BC00F0DDF8000009488047094800475B
:10017000FEE7FEE7FEE7FEE7FEE7FEE7FEE7FEE757
:10018000FEE7FEE704480549054A064B70470000B4
:10019000F1090008CD00000818390020183F0020A0
:1001A000183B0020183B002053EA020C00F0698045
:1001B0002DE9F04B4FF00006002B1FBFB3FA83F57B
:1001C00003FA05F424FA05F65E4012BF1643B2FAAC
:1001D00082F502FA05F4C5F120051EBF22FA05FCDE
:1001E00044EA0C04203556EA044C4FEA144418BF84
:1001F000641C4FF000084FF00009904271EB030CB3
:1002000039D3002919BFB1FA81F701FA07F6B0FA1C
:1002100080F700FA07F6C7F120071EBF20FA07FC97
:1002200046EA0C062037B6FBF4FCA7EB0507103FA7
:1002300007F01F0BCBF120060CFA0BFB2CFA06F68D
:1002400044BFB3460026202FA4BF5E464FF0000BEC
:100250005BEA060C08BF4FF0010B19EB0B09ABFB77
:10026000027C48EB0608C01B06FB02CC0BFB03CC50
:1002700071EB0C01C1E70B46024641464846BDE81A
:10028000F08B13B54FF000004FF00001AFF300808A
:10029000BDE81C40704770477047704710B500F0CC
:1002A00009F8006810BD10B5044600F003F80460BA
:1002B00010BD000000487047B43800200048704767
:1002C000B43800207546FFF7F9FFAE4605006946D1
:1002D000534620F00700854618B020B5FFF752FFBF
:1002E000BDE820404FF000064FF000074FF0000837
:1002F0004FF0000B21F00701AC46ACE8C009ACE8B8
:10030000C009ACE8C009ACE8C0098D46704710B51B
:100310000446AFF300802046BDE81040FFF71DBF44
:1003200001491820ABBEFEE726000200704744F6E4
:10033000EC3C827044F2EC32C0F6000CC370C0F6A4
:100340000002FF294FF0FF030180C0F804C00EDD5A
:10035000B1F5806F16DB29D0B1F5805F2BD0B1F5F8
:10036000006F41D102324FF06851022337E03F293C
:1003700013DC102923D0202936D1FE324FF07451DE
:1003800080232CE0B1F5807F20D0B1F5007F2BD108
:100390000E324FF06C51082321E040291BD08029F8
:1003A00022D13E324FF07051202318E006324FF038
:1003B0006A51042313E04FF0665101230FE002F568
:1003C000FF724FF076514FF4807308E01E324FF009
:1003D0006E51102303E07E324FF07251402383812F
:1003E000C38100238260016158B2704700BFFEE7FD
:1003F00010B5022002F0BAFA002845D0022002F01F
:1004000077FA224800882249098888423CDA214844
:100410000088001120491D4A128821F812001D4849
:10042000408800111D49194A128821F81200194804
:10043000808800111A49154A128821F812001548BF
:10044000C08800111749114A128821F8120011487A
:100450000089001114490D4A128821F812000D4834
:10046000408900111149094A128821F812000948EF
:10047000808900110E49054A128821F812000348AC
:100480000088401C0149088010BD00004000002089
:10049000B843000884000020A0000020A004002031
:1004A000A0080020A00C0020A0100020A014002014
:1004B000A0180020704700002DE9F0478146002079
:1004C00021490860002428E039F81410A1F2937043
:1004D00003F09EFD06461D4931F8140003F0B0FDFF
:1004E000074639461A4803F0B5FC0546314603F085
:1004F000EFFD184941F824000A4652F8241052F83A
:10050000240003F0E5FD05460F480168284603F086
:1005100033FC0D490860601C84B2B4F5007FD3DB66
:100520004FF088410848006803F094FC824603F0CD
:10053000F7FB074602F03AFE054603F0F5F90249DB
:100540000860BDE8F087000008000020A00000203F
:100550009A99993FA02C002000BFFEE700BFFEE75C
:100560007047704710B50446122C70D2DFE804F0D3
:1005700009223B55708AA4BCD4F7F5F4F3F2F1F0EC
:10058000EFEE01224FF41F414FF0904002F058FC73
:1005900001224FF69831EC4802F052FC0122C021B2
:1005A000EA4802F04DFC00224FF48041E64802F098
:1005B00047FCC6E101224FF41F414FF0904002F08A
:1005C0003FFC01224FF69831DF4802F039FC01224E
:1005D000C021DE4802F034FC00224FF40041DA482A
:1005E00002F02EFCADE101224FF41F414FF090408C
:1005F00002F026FC01224FF69831D34802F020FC8D
:100600000122C021D14802F01BFC00224FF480716E
:100610004FF0904002F014FC93E101224FF41F418F
:100620004FF0904002F00CFC01224FF69831C64882
:1006300002F006FC0122C021C44802F001FC0022A5
:100640004FF400714FF0904002F0FAFB79E165E160
:1006500001224FF41F414FF0904002F0F1FB0122C4
:100660004FF69831B84802F0EBFB0122C021B748A1
:1006700002F0E6FB00224FF480614FF0904002F060
:10068000DFFB5EE101224FF41F414FF0904002F08A
:10069000D7FB01224FF69831AB4802F0D1FB012283
:1006A000C021AA4802F0CCFB00224FF400614FF0B9
:1006B000904002F0C5FB44E101224FF41F414FF08E
:1006C000904002F0BDFB01224FF698319E4802F0A7
:1006D000B7FB0122C0219D4802F0B2FB002210218D
:1006E000994802F0ADFB2CE101224FF41F414FF07D
:1006F000904002F0A5FB01224FF69831924802F09B
:100700009FFB0122C021914802F09AFB00220821A0
:100710008D4802F095FB14E101224FF41F414FF088
:10072000904002F08DFB01224FF69831864802F08E
:1007300087FB0122C021854802F082FB00224FF492
:1007400000414FF0904002F07BFBFAE0CDE0B3E0D7
:100750009AE081E068E04DE033E019E0FFE7012234
:100760004FF41F414FF0904002F06AFB01224FF618
:100770009831754802F064FB0122C021734802F0F1
:100780005FFB00224FF400616F4802F059FBD8E094
:1007900001224FF41F414FF0904002F051FB012223
:1007A0004FF69831684802F04BFB0122C0216748A0
:1007B00002F046FB00224FF48051634802F040FBF8
:1007C000BFE001224FF41F414FF0904002F038FB90
:1007D00001224FF698315C4802F032FB0122C02121
:1007E0005A4802F02DFB00224FF40051564802F007
:1007F00027FBA6E001224FF41F414FF0904002F08A
:100800001FFB01224FF698314F4802F019FB0122DD
:10081000C0214E4802F014FB00224FF480514FF0EB
:10082000904002F00DFB8CE001224FF41F414FF08D
:10083000904002F005FB01224FF69831424802F049
:10084000FFFA0122C021414802F0FAFA00224021B9
:100850003E4802F0F5FA74E001224FF41F414FF0D8
:10086000904002F0EDFA01224FF69831364802F03E
:10087000E7FA0122C021354802F0E2FA0022802185
:10088000324802F0DDFA5CE001224FF41F414FF0E4
:10089000904002F0D5FA01224FF698312A4802F032
:1008A000CFFA0122C021294802F0CAFA0022802191
:1008B000254802F0C5FA44E001224FF41F414FF0F1
:1008C000904002F0BDFA01224FF698311E4802F026
:1008D000B7FA0122C0211D4802F0B2FA00224FF4FB
:1008E0008071194802F0ACFA2BE001224FF41F414D
:1008F0004FF0904002F0A4FA01224FF698311248CE
:1009000002F09EFA0122C021104802F099FA00225A
:100910004FF400710C4802F093FA12E001224FF4F8
:100920001F414FF0904002F08BFA01224FF69831B0
:10093000054802F085FA0122C021044802F080FA3D
:1009400000BF00BF10BD00000004004800140048B4
:1009500070B506462148845D214800780A2806D1F2
:100960002048007800F0010008B144F020041C4841
:1009700000780D2806D11B48007800F0020008B16D
:1009800044F0200416480078102806D11548007855
:1009900000F0040008B144F0200400251BE004F03E
:1009A000800028B1012240210F4802F049FA04E0FA
:1009B000002240210C4802F043FA002220210A487C
:1009C00002F03EFA01222021074802F039FA6006BF
:1009D000040E681CC5B2082DE1DB70BDC6430008DB
:1009E00002000020000000200004004870470000C2
:1009F0001748006820F00100401C1549086000BF3E
:100A000013480068C0F340000028F9D0104840683F
:100A100020F003000E49486000BF0D484068C0F355
:100A200081000028F9D10A4800680A4908400849AD
:100A300008600020486041F61070C8624FF48010D2
:100A400008634FF41F008860C803034908607047BB
:100A500000100240FFFFF2FE08ED00E070470000CA
:100A600010B50121064802F0F9FC38B10121044813
:100A700002F0F1FC0121034801F0B4FC10BD0000BC
:100A8000000400400024014010B501210A4802F092
:100A9000E5FC80B102F0B8FC08480078401C07492A
:100AA000087008460078122801D100200870012142
:100AB000014802F0D0FC10BD0010004002000020F0
:100AC00000BFFEE70520124908804FF48770488078
:100AD000401F88801E20C88005200881AA204881E8
:100AE000AF2088811E20C88105200882002048820E
:100AF00014208882C88201200883282048831E2071
:100B000088830520C883002008840120488470471A
:100B10005A0000202DE9F041F94CAEE00A20F949D5
:100B200008700120487015208870F74800884FF43D
:100B30007A7190FBF1F201FB1200642190FBF1F05D
:100B4000F0494872F0480088642190FBF1F201FB03
:100B500012000A2190FBF1F0EA498872EA48008805
:100B60000A2190FBF1F201FB1200E649C872E74846
:100B700002F0BBF9054605F4804038BB01E0701C6B
:100B800086B2B6F57A7FFADB4FF48041DF4802F097
:100B9000A3F9DF49087008460078B8B906E04FF4B9
:100BA0008041DA4802F098F9D9490870D8480078AD
:100BB0000028F4D0D4480088401ED3490880084655
:100BC000008810B94FF4FA700880CD4C05F400404D
:100BD00040BB01E0701C86B2B6F57A7FFADB4FF4B9
:100BE0000041CA4802F078F9C949087008460078FF
:100BF000C0B906E04FF40041C44802F06DF9C449A1
:100C00000870C34800780028F4D0BF480088401C12
:100C1000BD49088008460088B0F5FA7F01DD012053
:100C20000880B74C0121BB4802F056F9B84908705A
:100C300008460078E0B901E0701C86B242F21070FC
:100C40008642F9DB0121B34802F046F9B049087049
:100C50000846007860B905E00121AE4802F03CF991
:100C6000AB490870AA4800780028F5D0A44C05E0EC
:100C7000641E0CB9BDE8F08100BF4FE700BFA8E0DB
:100C80000B20A049087001204870152088709E48EC
:100C900040884FF47A7190FBF1F201FB120064215D
:100CA00090FBF1F09749487297484088642190FB87
:100CB000F1F201FB12000A2190FBF1F091498872D8
:100CC000914840880A2190FBF1F201FB12008D4906
:100CD000C8728E4802F009F9054605F4804010BB41
:100CE0004FF48041894802F0F7F8894908700846B6
:100CF0000078C0B906E04FF48041844802F0ECF877
:100D000083490870824800780028F4D07E484088E3
:100D1000401E7D49488008464088E62802DA4FF4A4
:100D200096704880764C05F4004040BB01E0701C92
:100D300086B2B6F57A7FFADB4FF40041734802F0D1
:100D4000CBF87349087008460078C0B906E04FF444
:100D500000416E4802F0C0F86D4908706C48007898
:100D60000028F4D068484088401C674948800846FD
:100D70004088B0F5967F01DDE6204880604C012177
:100D8000644802F0A9F86249087008460078E0B9A2
:100D900001E0701C86B242F210708642F9DB01213C
:100DA0005C4802F099F85A4908700846007860B922
:100DB00005E00121574802F08FF855490870544862
:100DC00000780028F5D04E4C04E0641E04B951E7C9
:100DD00000BF55E700BFA3E00B204A49087002207E
:100DE000487015208870484880884FF47A7190FBCD
:100DF000F1F201FB1200642190FBF1F041494872CD
:100E000041488088642190FBF1F201FB12000A2125
:100E100090FBF1F03B4988723B4880880A2190FBA7
:100E2000F1F201FB12003749C872384802F05DF850
:100E3000054605F48040E0B901E0701C86B2B6F5C5
:100E40007A7FFADB4FF48041304802F045F83049B0
:100E500008700846007860B92B488088401E2A49EF
:100E6000888008468088E12802DA40F227108880CE
:100E7000234C05F40040E0B901E0701C86B2B6F5E1
:100E80007A7FFADB4FF40041204802F025F8204930
:100E900008700846007860B91B488088401C1A49D1
:100EA000888008468088B0F5947F01DBE120888047
:100EB000134C0121174802F00FF815490870084635
:100EC0000078E0B901E0701C86B242F210708642F0
:100ED000F9DB01210F4801F0FFFF0D4908700846BA
:100EE000007860B905E001210A4801F0F5FF0849E2
:100EF0000870074800780028F5D0014C11E00BE09D
:100F000000A24A04480000205A00002000080048BF
:100F10000100002000140048641E04B9AAE600BFC6
:100F20005AE700BF96E00B20FE4908700320487086
:100F300015208870FC48C0884FF47A7190FBF1F25C
:100F400001FB1200642190FBF1F0F6494872F6486B
:100F5000C088642190FBF1F201FB12000A2190FB92
:100F6000F1F0F0498872F048C0880A2190FBF1F254
:100F700001FB1200EB49C872EC4801F0B6FF0546D0
:100F800005F48040E0B901E0701C86B2B6F57A7FC6
:100F9000FADB4FF48041E54801F09EFFE449087018
:100FA0000846007860B9E048C088401EDE49C88025
:100FB0000846C088012802DA4FF4FA70C880DD4C78
:100FC00005F40040E0B901E0701C86B2B6F57A7F06
:100FD000FADB4FF40041D54801F07EFFD449087098
:100FE0000846007860B9D048C088401CCE49C88007
:100FF0000846C088B0F5FA7F01DD0120C880CD4CDD
:101000000121CD4801F068FFC94908700846007801
:10101000E0B901E0701C86B242F210708642F9DB42
:101020000121C54801F058FFC14908700846007801
:1010300060B905E00121C04801F04EFFBC490870CD
:10104000BB4800780028F5D0BA4C04E0641E04B90F
:1010500010E600BF67E700BF99E00B20B1490870B8
:101060000420487015208870AF4800894FF47A71C9
:1010700090FBF1F201FB1200642190FBF1F0A94911
:101080004872A9480089642190FBF1F201FB12002B
:101090000A2190FBF1F0C0B240F02000A149887213
:1010A000A14800890A2190FBF1F201FB12009D4941
:1010B000C8729E4801F019FF054605F48040E0B96A
:1010C00001E0701C86B2B6F57A7FFADB4FF48041FE
:1010D000964801F001FF964908700846007860B90B
:1010E00091480089401E90490881084600890128DE
:1010F00002DA4FF4967008818E4C05F40040E0B996
:1011000001E0701C86B2B6F57A7FFADB4FF400413D
:10111000864801F0E1FE864908700846007860B90B
:1011200081480089401C8049088108460089B0F543
:10113000967F01DD012008817E4C01217E4801F06F
:10114000CBFE7B49087008460078E0B901E0701CCE
:1011500086B242F210708642F9DB0121764801F036
:10116000BBFE734908700846007860B905E00121AC
:10117000714801F0B1FE6E4908706D480078002892
:10118000F5D06C4C04E0641E04B973E500BF64E75D
:1011900000BF94E00B2063490870052048701520BB
:1011A0008870614840894FF47A7190FBF1F201FB3D
:1011B0001200642190FBF1F05A4948725A48408964
:1011C000642190FBF1F201FB12000A2190FBF1F087
:1011D00054498872544840890A2190FBF1F201FB7E
:1011E00012005049C872514801F07FFE054605F4CF
:1011F0008040D8B901E0701C86B2B6F57A7FFADB80
:101200004FF48041494801F067FE4949087008469B
:10121000007858B944484089401E434948810846EF
:1012200040898C2801DAD2204881424C05F40040E4
:10123000D8B901E0701C86B2B6F57A7FFADB4FF4BC
:1012400000413A4801F048FE3949087008460078E4
:1012500058B935484089401C33494881084640897F
:10126000D22801DD8C204881324C0121324801F026
:1012700033FE2F49087008460078E0B901E0701C81
:1012800086B242F210708642F9DB01212A4801F051
:1012900023FE274908700846007860B905E001215F
:1012A000254801F019FE22490870214800780028DD
:1012B000F5D0204C04E0641E04B9DBE400BF69E70C
:1012C00000BFA1E00B2017490870062048701520C8
:1012D0008870154880894FF47A7190FBF1F201FB18
:1012E0001200642190FBF1F00E4948720E4880898B
:1012F000642190FBF1F201FB12000A2190FBF1F056
:1013000008498872084880890A2190FBF1F201FBA4
:1013100012000449C872054801F0E7FD054605F4CE
:1013200080400BE0480000205A00002000080048E0
:101330000100002000A24A0400140048D8B901E0CE
:10134000701C86B2B6F57A7FFADB4FF48041FE4816
:1013500001F0C2FDFD4908700846007858B9FC4804
:101360008089401EFA49888108468089912801DADF
:10137000D7208880F74C05F40040D8B901E0701CF4
:1013800086B2B6F57A7FFADB4FF40041EE4801F001
:10139000A3FDEE4908700846007858B9EC488089EA
:1013A000401CEB49888108468089D72801DD9120BF
:1013B0008881E84C0121E84801F08EFDE34908707E
:1013C00008460078E0B901E0701C86B242F2107065
:1013D0008642F9DB0121E04801F07EFDDB4908701F
:1013E0000846007860B905E00121DB4801F074FD92
:1013F000D6490870D54800780028F5D0D54C04E0CF
:10140000641E04B936E400BF5CE700BF96E00B2021
:10141000D24908700720487015208870CC48C089D0
:101420004FF47A7190FBF1F201FB1200642190FB02
:10143000F1F0CA494872C648C089642190FBF1F2B4
:1014400001FB12000A2190FBF1F0C4498872C048E8
:10145000C0890A2190FBF1F201FB1200BF49C8725A
:10146000B94801F042FD054605F48040E0B901E0CD
:10147000701C86B2B6F57A7FFADB4FF48041B24831
:1014800001F02AFDB14908700846007860B9B048FB
:10149000C089401EAE49C8810846C089012802DAC9
:1014A0004FF4FA70C881AB4C05F40040E0B901E09C
:1014B000701C86B2B6F57A7FFADB4FF40041A24881
:1014C00001F00AFDA14908700846007860B9A048FB
:1014D000C089401C9E49C8810846C089B0F5FA7F82
:1014E00001DD0120C8819B4C01219B4801F0F4FCE7
:1014F0009649087008460078E0B901E0701C86B291
:1015000042F210708642F9DB0121934801F0E4FCBD
:101510008E4908700846007860B905E001218E48C0
:1015200001F0DAFC89490870884800780028F5D075
:10153000884C04E0641E04B949E400BF67E700BFBB
:1015400099E00B20854908700820487015208870A4
:101550007F48008A4FF47A7190FBF1F201FB120090
:10156000642190FBF1F07D4948727948008A64213A
:1015700090FBF1F201FB12000A2190FBF1F0C0B2E6
:1015800040F02000754988727148008A0A2190FB5A
:10159000F1F201FB12007149C8726B4801F0A5FC21
:1015A000054605F48040E0B901E0701C86B2B6F54E
:1015B0007A7FFADB4FF48041634801F08DFC634988
:1015C00008700846007860B96148008A401E60498A
:1015D00008820846008A012802DA4FF496700882D1
:1015E0005C4C05F40040E0B901E0701C86B2B6F531
:1015F0007A7FFADB4FF40041534801F06DFC534908
:1016000008700846007860B95148008A401C50496B
:1016100008820846008AB0F5967F01DD0120088225
:101620004C4C01214C4801F057FC484908700846D1
:101630000078E0B901E0701C86B242F21070864278
:10164000F9DB0121444801F047FC40490870084695
:10165000007860B905E001213F4801F03DFC3B49BD
:1016600008703A4800780028F5D03A4C04E0641E2F
:1016700004B953E400BF64E700BFA6E00B2037497C
:10168000087009204870152088703148408A4FF44E
:101690007A7190FBF1F201FB1200642190FBF1F0F2
:1016A0002E4948722A48408A642190FBF1F201FBDE
:1016B00012000A2190FBF1F0C0B240F0200027494F
:1016C00088722348408A0A2190FBF1F201FB120044
:1016D0002249C8721C4801F008FC054605F4804008
:1016E000E0B901E0701C86B2B6F57A7FFADB4FF400
:1016F0008041154801F0F0FB144908700846007855
:1017000060B91348008A401E114908820846008AC1
:10171000012802DA4FF4967008820E4C05F400405E
:1017200048BB01E0701C86B2B6F57A7FFADB4FF455
:101730000041054801F0D0FB0449087008460078D4
:10174000C8B90348008A0BE00008004801000020E7
:101750005A00002000A24A0400140048480000205B
:10176000401CFE4908820846008AB0F5967F01DDDC
:1017700001200882FA4C0121FA4801F0ADFBFA4938
:10178000087008460078E0B901E0701C86B242F2A9
:1017900010708642F9DB0121F24801F09DFBF2490D
:1017A00008700846007860B905E00121ED4801F0B5
:1017B00093FBED490870EC4800780028F5D0E84C20
:1017C00004E0641E04B943E400BF57E700BF94E09F
:1017D0000B20E64908700120487000208870DF481F
:1017E000808A4FF47A7190FBF1F201FB12006421C0
:1017F00090FBF1F0DD494872D848808A642190FB63
:10180000F1F201FB12000A2190FBF1F0D749887236
:10181000D248808A0A2190FBF1F201FB1200D349E1
:10182000C872D34801F061FB054605F48040D8B981
:1018300001E0701C86B2B6F57A7FFADB4FF4804186
:10184000CB4801F049FBC84908700846007858B9F0
:10185000C248808A401EC14988820846808A14286E
:1018600001DA63208882BE4C05F40040D8B901E05B
:10187000701C86B2B6F57A7FFADB4FF40041BC48A3
:1018800001F02AFBB84908700846007858B9B348F7
:10189000808A401CB14988820846808A632801DD1D
:1018A00014208882AE4C0121AE4801F015FBAE49F0
:1018B000087008460078E0B901E0701C86B242F278
:1018C00010708642F9DB0121A64801F005FBA6490C
:1018D00008700846007860B905E00121A14801F0D0
:1018E000FBFAA1490870A04800780028F5D09C4C6C
:1018F00004E0641E04B948E400BF69E700BF93E058
:101900000B209A4908700120487088709348C08A5B
:101910004FF47A7190FBF1F201FB1200642190FB0D
:10192000F1F0924948728D48C08A642190FBF1F22F
:1019300001FB12000A2190FBF1F08C498872874864
:10194000C08A0A2190FBF1F201FB12008749C8729C
:10195000874801F0CAFA054605F48040D8B901E08D
:10196000701C86B2B6F57A7FFADB4FF4804180486E
:1019700001F0B2FA7C4908700846007858B97748F7
:10198000C08A401E7549C8820846C08A0F2801DAFD
:101990005E20C882724C05F40040D8B901E0701C8A
:1019A00086B2B6F57A7FFADB4FF40041704801F059
:1019B00093FA6D4908700846007858B96748C08A9C
:1019C000401C6649C8820846C08A5E2801DD0F2097
:1019D000C882634C0121634801F07EFA62490870B5
:1019E00008460078E0B901E0701C86B242F210703F
:1019F0008642F9DB01215B4801F06EFA5A49087012
:101A00000846007860B905E00121564801F064FA03
:101A100055490870544800780028F5D0504C04E02F
:101A2000641E04B949E400BF6AE700BF72E00B20FE
:101A30004E49087001204870022088704748008B8A
:101A400030B1152048720D2088720F20C87205E051
:101A50000D20464948720E208872C872444801F031
:101A600044FA054605F4804098B901E0701C86B23E
:101A7000B6F57A7FFADB4FF480413D4801F02CFA4D
:101A8000394908700846007818B90020334908839E
:101A9000334C05F4004098B901E0701C86B2B6F5ED
:101AA0007A7FFADB4FF40041314801F015FA2E49F4
:101AB00008700846007818B9012028490883284C86
:101AC0000121284801F008FA2749087008460078E3
:101AD000E0B901E0701C86B242F210708642F9DB78
:101AE0000121204801F0F8F91F49087008460078E4
:101AF00060B905E001211B4801F0EEF91A490870B0
:101B0000194800780028F5D0154C04E0641E04B98B
:101B100078E400BF8BE700BFA1E00C2013490870F8
:101B200001204870152088700C48408B4FF47A7162
:101B300090FBF1F201FB1200642190FBF1F00B49E4
:101B400048720648408B642190FBF1F201FB1200C1
:101B50000A2190FBF1F0054988720BE05A00002041
:101B600000A24A04001400480100002048000020A0
:101B700000080048FE48408B0A2190FBF1F201FB6F
:101B80001200FC49C872FC4801F0AFF9054605F4A3
:101B90008040D8B901E0701C86B2B6F57A7FFADBD6
:101BA0004FF48041F44801F097F9F4490870084671
:101BB000007858B9EE48408B401EED4948830846EE
:101BC000408B012801DA3F204883ED4C05F40040AA
:101BD000D8B901E0701C86B2B6F57A7FFADB4FF413
:101BE0000041E54801F078F9E449087008460078BA
:101BF00058B9DF48408B401CDD4948830846408B7C
:101C00003F2801DD01204883DD4C0121DD4801F042
:101C100063F9DA49087008460078E0B901E0701C01
:101C200086B242F210708642F9DB0121D54801F0FC
:101C300053F9D24908700846007860B905E00121DF
:101C4000D04801F049F9CD490870CC480078002807
:101C5000F5D0CB4C04E0641E04B96DE400BF5CE732
:101C600000BF96E00C20C349087002204870152080
:101C70008870BF48808B4FF47A7190FBF1F201FBC2
:101C80001200642190FBF1F0BA494872B848808B89
:101C9000642190FBF1F201FB12000A2190FBF1F0AC
:101CA000B4498872B248808B0A2190FBF1F201FBA3
:101CB0001200B049C872B04801F017F9054605F4A2
:101CC0008040E0B901E0701C86B2B6F57A7FFADB9D
:101CD0004FF48041A84801F0FFF8A8490870084671
:101CE000007860B9A248808B401EA14988830846CD
:101CF000808B012802DA4FF4FA708883A04C05F437
:101D00000040E0B901E0701C86B2B6F57A7FFADBDC
:101D10004FF40041984801F0DFF8984908700846F0
:101D2000007860B99248808B401C914988830846AE
:101D3000808BB0F5FA7F01DD01208883904C012172
:101D4000904801F0C9F88D49087008460078E0B95C
:101D500001E0701C86B242F210708642F9DB01216C
:101D6000884801F0B9F8854908700846007860B9DC
:101D700005E00121834801F0AFF8804908707F48F1
:101D800000780028F5D07E4C04E0641E04B970E4AD
:101D900000BF67E700BF99E00C2076490870032078
:101DA0004870152088707248C08B4FF47A7190FB90
:101DB000F1F201FB1200642190FBF1F06D494872D1
:101DC0006B48C08B642190FBF1F201FB12000A21E9
:101DD00090FBF1F0C0B240F0200066498872644880
:101DE000C08B0A2190FBF1F201FB12006149C8721D
:101DF000614801F07AF8054605F48040E0B901E059
:101E0000701C86B2B6F57A7FFADB4FF480415A48EF
:101E100001F062F8594908700846007860B95448E2
:101E2000C08B401E5249C8830846C08B012802DA85
:101E30004FF49670C883524C05F40040E0B901E0BD
:101E4000701C86B2B6F57A7FFADB4FF400414A483F
:101E500001F042F8494908700846007860B94448E2
:101E6000C08B401C4249C8830846C08BB0F5967FA2
:101E700001DD0120C883424C0121424801F02CF8C9
:101E80003E49087008460078E0B901E0701C86B24F
:101E900042F210708642F9DB01213A4801F01CF849
:101EA000364908700846007860B905E001213548D8
:101EB00001F012F831490870304800780028F5D058
:101EC0002F4C04E0641E04B97DE400BF64E700BF4A
:101ED000A1E00C2027490870042048701520887064
:101EE0002348008C4FF47A7190FBF1F201FB120051
:101EF000642190FBF1F01F4948721D48008C642159
:101F000090FBF1F201FB12000A2190FBF1F019495C
:101F100088721748008C0A2190FBF1F201FB120035
:101F20001449C872144800F0E0FF054605F48040EB
:101F3000D8B901E0701C86B2B6F57A7FFADB4FF4AF
:101F400080410D4800F0C8FF0C4908700846007831
:101F500058B90748008C401E054908840846008C83
:101F6000012801DA3F200884054C05F400400BE00D
:101F70005A0000204800002000080048010000200E
:101F800000A24A0400140048D8B901E0701C86B2CF
:101F9000B6F57A7FFADB4FF40041B24800F09CFFBF
:101FA000B14908700846007858B9B048008C401C08
:101FB000AE4908840846008C3F2801DD01200884D2
:101FC000AB4C0121AB4800F087FFA74908700846D9
:101FD0000078E0B901E0701C86B242F210708642CF
:101FE000F9DB0121A34800F077FF9F4908700846FC
:101FF000007860B905E001219E4800F06DFF9A4924
:102000000870994800780028F5D0994C04E0641EC7
:1020100004B970E400BF5CE700BF94E00C2096496F
:10202000087005204870152088709048408B4FF448
:102030007A7190FBF1F201FB1200642190FBF1F048
:102040008D4948728948408B642190FBF1F201FB75
:1020500012000A2190FBF1F0874988728348408B77
:102060000A2190FBF1F201FB12008349C8727D48FE
:1020700000F03BFF054605F48040D8B901E0701C34
:1020800086B2B6F57A7FFADB4FF48041754800F0EE
:1020900023FF754908700846007858B97348408C8A
:1020A000401E724948840846408C012801DA1420F9
:1020B00048846F4C05F40040D8B901E0701C86B22A
:1020C000B6F57A7FFADB4FF40041664800F004FF72
:1020D000654908700846007858B96448408C401C2F
:1020E000624948840846408C142801DD0120488458
:1020F0005F4C01215F4800F0EFFE5B490870084625
:102100000078E0B901E0701C86B242F2107086429D
:10211000F9DB0121574800F0DFFE534908700846FB
:10212000007860B905E00121524800F0D5FE4E4923
:1021300008704D4800780028F5D04D4C04E0641E2E
:1021400004B96FE400BF69E700BF61E010204A49AD
:1021500008700F2048701120887000204872887223
:10216000C872404800F0C1FE054605F4804088B9B9
:1021700000E0761C41488642FBDB4FF48041394841
:1021800000F0AAFE384908700846007810B9FEF73A
:1021900099FC374C05F4004088B900E0761C3748BC
:1021A0008642FBDB4FF400412E4800F095FE2E499D
:1021B00008700846007810B9FEF784FC2C4C012109
:1021C0002C4800F089FE2849087008460078D8B9E4
:1021D00000E0761C42F210708642FADB01212548AD
:1021E00000F07AFE204908700846007860B905E0E2
:1021F0000121204800F070FE1B4908701A48007841
:102200000028F5D01A4C04E0641E04B90AE400BFAB
:102210009CE700BF24E01020174908700F20487089
:1022200011208870002048728872C87212E0144829
:1022300002880E491348006800F054FD0646012E3E
:1022400001D10E4C07E001E0781C87B2B7F57A7F28
:10225000FADB00BFEBE700BF641E04B958E400BF1F
:10226000D9E7000000080048010000205A000020C3
:1022700000A24A04001400484800002000366E0105
:10228000C4430008C04300080B78426863F3082287
:1022900042604B78826863F3410282608B78826887
:1022A00063F3CB228260CA78521EC36A62F317536B
:1022B000C362704700210170417081700121C170BB
:1022C0007047816821F0080108318160704701463C
:1022D0008868C0F3C00008B1012070470020FCE707
:1022E000816821F00401091D8160704701468868FA
:1022F000C0F3800008B1012070470020FCE782682D
:1023000061F3082282607047826861F30002826094
:10231000704770B504460A290CDA206901EB4106C2
:102320000725B540A84301EB410503FA05F528430D
:1023300020610FE0E068A1F10A0505EB45060725DD
:10234000B540A843A1F10A0505EB450503FA05F5DB
:102350002843E0600D2A10DBE06AA2F10D0505EBD1
:1023600085061F25B540A843A2F10D0505EB85059F
:1023700001FA05F52843E0621EE0072A0EDB206B18
:10238000D51F05EB85061F25B540A843D51F05EBD6
:10239000850501FA05F5284320630DE0606B551EA5
:1023A00005EB85061F25B540A843551E05EB8505A1
:1023B00001FA05F52843606370BD072904DD8368D1
:1023C00061F35343836003E0836861F353438360A5
:1023D000836862F3145383607047426861F3CB22D1
:1023E00042607047826861F39652826070470000D5
:1023F0000349096860F3D751014A11607047000032
:10240000082401400649496860F38F31044A51604D
:1024100082080349496862F31C71014A51607047A0
:10242000001002400349496860F30711014A5160F6
:1024300070470000001002400349496860F30A2118
:10244000014A51607047000000100240034949688A
:1024500060F3CD21014A5160704700000010024036
:10246000052827D2DFE800F0030A11181F00134ADD
:10247000126861F30002114B1A601CE00F4A1268E7
:1024800061F310420D4B1A6015E00C4A126861F3BB
:1024900018620A4B1A600EE0084A126A61F30002E1
:1024A000064B1A6207E0054A526A61F30002034BC9
:1024B0005A6200E000BF00BF7047000000100240F9
:1024C00010B501460020094B03EB1142126801F0E0
:1024D0001F040123A3401A4001F01F040123A3405D
:1024E0009A4200D000E0012010BD00000010024020
:1024F00010B501290DD10E4B03EB1042126800F00C
:102500001F040123A3401A43094C04EB10431A6033
:102510000CE0074B03EB1042126800F01F0401238C
:10252000A3409A43024C04EB10431A6010BD000014
:102530000010024030B502460020002372B9354C2D
:10254000646824F48034334D6C6033482C46246B2B
:1025500024F0007404F100742C6319E02D4C6468BD
:1025600024F4803404F580342A4D6C60012A06D1AD
:102570002A482C46646824F400346C6008E026483D
:10258000244C646824F4003404F50034214D6C605C
:10259000234CA04204D9234CA04201D2002326E0C0
:1025A000214CA04204D9214CA04201D201231EE0BB
:1025B0001F4CA04204D91F4CA04201D2022316E0B6
:1025C0001C4CA04204D91C4CA04201D203230EE0B3
:1025D0001A4CA04204D91A4CA04201D2042306E0AE
:1025E000174CA04203D9174CA04200D20523094C36
:1025F000646861F39544074D6C600D09054C64688F
:1026000065F35E74034D6C602C46E46A63F31A64F0
:10261000EC6230BD0010024000093D0000127A005B
:1026200060823B00404B4C0080584F00105E5F00C2
:1026300094357700101B7F0020BCBE00286BEE0095
:1026400030D73D01D8E9DC011648006820F00100D0
:10265000401C1449086000BF12480068C0F34000E5
:102660000028F9D00F48406820F003000D49486069
:1026700000BF0C484068C0F381000028F9D1094828
:10268000006809490840074908600020486041F691
:102690001070C8624FF4801008634FF41F00886008
:1026A0007047000000100240FFFFF2FE0D4949682C
:1026B00060F301010B4A516000BF00BF00BF00BFC3
:1026C00000BF00BF00BF00BF00BF00BF00BF00BF12
:1026D00000BF00BF00BF00BF00BF00BF00BF00BF02
:1026E000704700000010024002484068C0F38100BB
:1026F00070470000001002402DE9F0415F48FDF7EF
:10270000DBFE5F48006801F00BFB064600225D4BD4
:1027100001F03CF9044601F007F95B49086000212B
:102720005948006801F0A0FD03D258480068584994
:1027300008605848FDF7C0FE5148006801F0F0FA03
:10274000064600224F4B01F021F9044601F0ECF857
:102750005149086000215048006801F085FD03D20E
:102760004A4800684A4908604C48FDF7A5FE4448BD
:10277000006801F0D5FA06460022424B01F006F946
:10278000044601F0D1F84649086000214448006839
:1027900001F06AFD03D23D4800683D4908604148A8
:1027A000FDF78AFE40494148006801F091FC40492C
:1027B000086040493E48006801F056FC0DD23D4992
:1027C0003B48006801F084FC394908603A480078C9
:1027D00040F004003849087005E03748007820F0E0
:1027E0000400354908703548FDF766FE2E492F482C
:1027F000006801F06DFC324908602E4930480068DD
:1028000001F032FC0DD22B492D48006801F060FC2C
:102810002B4908602848007840F0020026490870DB
:1028200005E02548007820F002002349087025487B
:10283000FDF742FE1C491D48006801F049FC224991
:1028400008601C492048006801F00EFC0DD21949AF
:102850001D48006801F03CFC1B49086016480078E0
:1028600040F001001449087005E01348007820F09A
:10287000010011490870BDE8F0810000A018002097
:1028800008000020002870401800002010000020E0
:102890003C000020A01400201C000020A0100020FC
:1028A00020000020A00C0020CDCC6A420C000020AB
:1028B0002C0000200000204100000020A008002083
:1028C00028000020A004002024000020026861F3FA
:1028D0000002026070470021016041600181418176
:1028E000017341738173C1730174417470470000B7
:1028F00001494860704700000000024002684BF642
:10290000EF731A40026002680B891A4302604B7C25
:10291000026863F30D320260CB7B026863F38B22A3
:1029200002608B7B026863F3092202604B7B0268C2
:1029300063F3C71202600B7B026863F386120260C6
:102940000B7C026863F3451202604A8942600A68A0
:1029500082604A68C26070471AB103680B43036023
:1029600002E003688B4303607047000001460020CB
:102970000022044B1A6802EA01030BB1012000E0B7
:1029800000207047000002400021026822F001028E
:1029900002600022026042608260C2600146CAB2E8
:1029A000083A1423B2FBF3F293000F229A40034B30
:1029B0005B681A43014B5A607047000000000240F8
:1029C00010B57848006801F007FB4FF47A7190FB6E
:1029D000F1F201FB1200642190FBF1F072490870E2
:1029E0007048006801F0F8FA642190FBF1F201FBF5
:1029F00012000A2190FBF1F06B49487069480068A9
:102A000001F0EAFA0A2190FBF1F201FB120066499B
:102A100088706648006801F0DFFA4FF47A7190FB25
:102A2000F1F201FB1200642190FBF1F05E49C870E5
:102A30005E48006801F0D0FA642190FBF1F201FBDE
:102A400012000A2190FBF1F05749087157480068BD
:102A500001F0C2FA0A2190FBF1F201FB1200524987
:102A600048715348006801F0B7FA4FF47A7190FB4F
:102A7000F1F201FB1200642190FBF1F04A498871E8
:102A80004B48006801F0A8FA642190FBF1F201FBC9
:102A900012000A2190FBF1F04349C87144480068D4
:102AA00001F09AFA0A2190FBF1F201FB12003E4973
:102AB00008724048006801F08FFA4FF47A7190FB79
:102AC000F1F201FB1200642190FBF1F036494872EB
:102AD0003848006801F080FA642190FBF1F201FBB4
:102AE00012000A2190FBF1F02F49887231480068EA
:102AF00001F072FA0A2190FBF1F201FB12002A495F
:102B0000C8722D48006801F067FA4FF47A7190FBA3
:102B1000F1F201FB1200642190FBF1F022490873ED
:102B20002548006801F058FA642190FBF1F201FB9E
:102B300012000A2190FBF1F01B4948731E480068FF
:102B400001F04AFA0A2190FBF1F201FB120016494A
:102B500088731A48006801F03FFA4FF47A7190FBCD
:102B6000F1F201FB1200642190FBF1F00E49C873F1
:102B70001248006801F030FA642190FBF1F201FB89
:102B800012000A2190FBF1F0074908740B48006815
:102B900001F022FA0A2190FBF1F201FB1200024936
:102BA000487410BD18000020480000201C000020C0
:102BB0002000002024000020280000203C000020ED
:102BC0000149C860704700000020024070B504460B
:102BD0000D4603260A48006920F00100401C084900
:102BE000086125804FF4801000F030F80646044854
:102BF000006920F0010002490861304670BD000004
:102C0000002002400348006920F080008030014924
:102C1000086170470020024003200B49C96801F099
:102C2000010109B100200EE00749C968C1F3800124
:102C300009B1012007E00449C968C1F3001109B1D5
:102C4000022000E0032070470020024000B5024649
:102C50000323FFF7E1FF034603E0FFF7DDFF034631
:102C6000521E0BB9002AF8D102B90423184600BD40
:102C700010B50B46002105E0048823F81140801CA4
:102C80004C1CA1B29142F7DB10BD000030B50446E8
:102C900003250D48006920F00200801C0A490861E4
:102CA00008464461006920F0400040300861480453
:102CB000FFF7CCFF05460448006920F002000249F6
:102CC0000861284630BD0000002002400248034948
:102CD0004860034848607047230167450020024070
:102CE000AB89EFCD2DE9F84F81468A4616464FF065
:102CF0000308FFF7EBFFA9F1006000900098870A36
:102D00000098C0F3480BCBF50074A64200DC3446B3
:102D100070E04FF0006101EB87208A143849FFF71B
:102D2000A7FF00250BE00BEB0500354931F810003B
:102D30004FF6FF71884200D003E0681C85B2A542BF
:102D4000F1DB00BFA54239DA4FF08040FFF77EFF8C
:102D50008046B8F1010F02D0B8F1020F03D1142060
:102D6000FFF72EFF05E0B8F1040F02D10020BDE807
:102D7000F88F4FF0006101EB8720FFF787FF804657
:102D8000B8F1030F01D00020F1E7002508E03AF880
:102D9000150005EB0B011A4A22F81100681C85B2D8
:102DA000A542F4DB4FF0006101EB87208A1414493F
:102DB00000F028F801280AD00020D8E72246514622
:102DC000484600F01FF8012801D00020CFE7A642B6
:102DD00000D110E07F1C4FF0000B0AEB440A09EB16
:102DE0004409301B86B2B6F5007F02DD4FF4007453
:102DF00000E034468DE700BFFFF704FF0120B6E78F
:102E0000B43400202DE9F04105460E4617464FF038
:102E1000030800240EE036F814102846FFF7D6FE0B
:102E20008046B8F1030F02D00020BDE8F081AD1C50
:102E3000601C84B2BC42EEDB0120F6E78162704781
:102E40000AB1816100E0816270474FF6FF71016055
:102E500000218171017141710121C171704770B50B
:102E60000A4600211488A3B233E003F001046CB3D6
:102E700004684E000325B540AC43046094794D00CE
:102E8000AC4005682C430460446801258D40AC4388
:102E90004460446815798D402C43446084684E003A
:102EA0000325B540AC438460D4794D00AC408568BF
:102EB0002C438460C4684E000325B540AC43C46015
:102EC00054794D00AC40C5682C43C4605B104C1C69
:102ED000A1B2002BC9DC70BD0246002013690B4073
:102EE0008B4200D000E0012070470146086980B2A3
:102EF0007047000000F080FC00F046FC00F02AFC67
:102F000000F07EFB0723484A4849494800F09AFBF5
:102F10000220FFF7EDFC01214548FFF7D7FC00F048
:102F200095FB01220F214FF09040FFF789FF00F041
:102F3000BDFA00F0BDFC00F0DDFC00F09FFC0121BB
:102F40003C4800F088FA012211463B4800F08FFA15
:102F500001221146374800F08AFA01220221344842
:102F6000FFF7FAFC0121334800F070FA052000F069
:102F700043F90123002259023048FDF7D8F952E005
:102F80002F480088B0F5007F06D1FFF7B5FBFFF7AB
:102F900017FD00202A49088001212A48FFF79CFFDD
:102FA0002949087008460078E0B900E0641C42F244
:102FB00010708442FADB01212248FFF78DFF22497D
:102FC00008700846007860B905E001211D48FFF748
:102FD00083FF1D4908701C4800780028F5D0FDF7D4
:102FE00099FD00BF02211748FFF776FF16490870C8
:102FF00008460078B8B91548007800F0800048B15C
:10300000002000F09DF81148007820F080000F4962
:10301000087008E0012000F093F80C48007840F0B8
:1030200080000A490870ABE7840000204C2401406E
:10303000080002400004004000100040A0340020BE
:103040004000002000140048010000200000002083
:103050002DE9F0470B4614464FF0000C00BF2C4AF8
:103060001268C2F302211D4626460A46C2F107092C
:10307000B9F1040F02D94FF0040901E0C2F10709C8
:10308000C84602F10409B9F1070F02D24FF0000956
:1030900001E0A2F103094F464FF0010909FA08F9CE
:1030A000A9F1010909EA050909FA07F94FF0010A2E
:1030B0000AFA07FAAAF1010A0AEA060A49EA0A091B
:1030C000CC4601466246002904DB15072E0E114D41
:1030D0006E5407E015072F0E0D4D0C3501F00F064D
:1030E000361FAF5500BF014600290DDB00BF00BFF2
:1030F00001F01F050122AA404D09AD0005F1E025B0
:10310000C5F8002100BF00BF00BFBDE8F087000088
:103110000CED00E000E400E000BF00F00702064B09
:1031200019684FF6FF031940044B0B4343EA022191
:10313000014B196000BF70470CED00E00000FA057C
:1031400070B50546BDB9012291021748FFF778FE18
:10315000002204211448FFF773FE01E0601C84B2D2
:1031600040F6B8308442F9DB00224FF480610E480B
:10317000FFF766FE16E000224FF480610A48FFF771
:103180005FFE012204210848FFF75AFE01E0601C9F
:1031900084B240F6B8308442F9DB002204210248B0
:1031A000FFF74EFE70BD0000000400482DE9F0411D
:1031B00006460F4600F0E8FC041E0D4618BF01202D
:1031C000284320F00040C0F17F6000F1E040C00FD4
:1031D0000ED0301C18BF0120384320F00040C0F151
:1031E0007F6000F1E040C00F04BF0120FDF75BF8F5
:1031F00020462946BDE8F08110B504464FF47A62B6
:1032000041F27071294800F00FF90121274800F0C0
:1032100022F90121254800F019F915202449887068
:10322000C870087148718871C87108720873487352
:103230008873C8730874487436E00A201C49087003
:10324000012048704FF47A7094FBF0F100FB1140BC
:10325000642190FBF1F016494872642094FBF0F170
:1032600000FB11400A2190FBF1F0114988720A20FD
:1032700094FBF0F100FB11400D49C87209E00121F7
:103280000A4800F0EBF820B10121084800F0E3F80B
:1032900000E0F4E700BF601E04B2002C04DA002155
:1032A000024800F0D3F810BDC7E70000002000403E
:1032B000480000202DE9FF5F002400250026A146DC
:1032C000A246A3460020039002900190FFF70CFA5B
:1032D0000090009820B1012814D0022874D115E084
:1032E0004348406DC0F3402040B14148006BC0F3FB
:1032F000406018B13F484049086002E03F483E49FD
:10330000086065E03D483C49086061E03848406835
:10331000C0F300463648C06AC00F20BB344840683E
:10332000C0F3834432484068C0F341750DB90F2C97
:1033300003D12801401C044400E0A41C26B93048F5
:1033400060432D4908603DE029484068C0F3404093
:1033500020B12B4860432849086033E02748604388
:10336000254908602EE02248C06AC0F3031003908C
:103370001F48C06AC0F3082002901D48C06A00F0D0
:103380000700019016B9DFF878B009E018484068E6
:10339000C0F3404010B1DFF868B001E0DFF85CB086
:1033A0000121019801FA00F0039900FB01FC029849
:1033B000ABFB00700146624600233846FCF7F4FE82
:1033C0000D49086004E0FFE70C480B49086000BFA6
:1033D00000BF07484068C0F303190A4810F809A065
:1033E0000548006820FA0AF003490860BDE8FF9F1D
:1033F00000100240006CDC024400002000127A0041
:1034000000093D00DB43000810B50549054A127864
:10341000885CFDF79DFA03480078FDF7A3F810BD1E
:103420004800002002000020C1628262436923F04C
:1034300001035B1C43617047026861F3092202606B
:103440007047026861F3061202607047026861F318
:10345000000202607047CA430261704702460020C2
:1034600013690B400BB1012000E000207047012AD6
:1034700003D1C3680B43C36003E012B9C3688B4335
:10348000C3607047026861F382020260704702689D
:1034900061F3C71202607047426861F3061242602E
:1034A0007047826861F3C712826070470EB501A849
:1034B000FFF7CBFC03208DF80A001020019001A932
:1034C0004FF09040FFF7CBFC03208DF80A0020203E
:1034D000019001A94FF09040FFF7C1FC03208DF847
:1034E0000A004020019001A94FF09040FFF7B7FC7F
:1034F00003208DF80A008020019001A94FF0904030
:10350000FFF7ADFC03208DF80A000120019001A90E
:103510003948FFF7A4FC03208DF80A00022001902F
:1035200001A93548FFF79BFC0220FEF76BFF012045
:10353000FEF75EFF6846FEF7BDFE01208DF8000035
:1035400000208DF8010001208DF8020007208DF881
:10355000030069462948FEF797FE0723012211213F
:103560002648FEF7D6FE0723022204212348FEF751
:10357000D0FE0723032205212048FEF7CAFE0723B9
:10358000042206211D48FEF7C4FE07230522194622
:103590001A48FEF7BEFE0723062208211748FEF749
:1035A000B8FE07231A4609211448FEF7B2FE01228D
:1035B00007211248FEF701FF00211048FEF70DFF1A
:1035C00001210E48FEF79BFE01210C48FEF79CFEF0
:1035D0000A48FEF776FE00BF0848FEF778FE00288E
:1035E000FAD10648FEF77CFE00BF0448FEF77EFED7
:1035F0000028FAD10EBD000000040048002401405C
:1036000000B585B00E48FFF7BFF96846FFF763F9CC
:103610000020ADF8080001208DF80F008DF80D0096
:103620008DF80E0000208DF80C008DF8110001209F
:103630008DF8100069460248FFF760F905B000BD3B
:103640000800024043608160C26070471CB5684654
:10365000FFF7FBFB00208DF806004FF44040009080
:1036600001208DF8050069463748FFF7F8FB002078
:103670008DF806000320009001208DF805006946B2
:103680003248FFF7ECFB4FF400512F48FFF7D6FB11
:1036900049F60F714FF09040FFF7D0FB4FF6FC71E9
:1036A0002B48FFF7CBFBC0212848FFF7C7FB0220C0
:1036B0008DF8070000208DF8040001208DF8060029
:1036C0004003009000208DF8050069461E48FFF772
:1036D000C6FB02208DF8070000208DF804000120B1
:1036E0008DF8060049F60F70009000208DF8050057
:1036F00069464FF09040FFF7B2FB02208DF80700BB
:1037000000208DF8040001208DF806004FF6FC70B3
:10371000009000208DF8050069460D48FFF79FFBDB
:1037200002208DF8070000208DF8040001208DF89C
:103730000600C020009000208DF80500694603486F
:10374000FFF78DFB1CBD0000000800480014004876
:103750000004004810B50320FFF7DEFC00221146EC
:103760000920FFF775FC002211461020FFF770FCBE
:10377000002211461120FFF76BFC00221146132096
:10378000FFF766FC10BD000010B501214FF4A0103A
:10379000FEF7AEFE01211548FEF7AAFE01211348EF
:1037A000401CFEF7A5FE01211048801CFEF7A0FE7C
:1037B00001210E48401DFEF79BFE01214FF4C01071
:1037C000FEF796FE01210A48FEF792FE0121094804
:1037D000FEF78EFE01210748C01CFEF789FE01217D
:1037E0000448C01DFEF784FE10BD00001100140047
:1037F0000900180001001C0010B5FEF725FF4FF46A
:10380000A8701C49086001210420FEF729FE00BFB2
:103810001948FEF755FE0128FAD101210020FEF7D4
:103820001FFE00BF0120FEF74BFE0128FAD1042144
:103830000020FEF77FFE01210220FEF711FE00BFEF
:103840001920FEF73DFE0128FAD10020FEF7EAFD1F
:103850000020FEF7FBFD0020FEF7EEFD0220FEF744
:1038600025FF00BFFEF740FF0228FBD1FFF722FD36
:1038700010BD0000002002400100240010B5C82245
:1038800041F252610948FFF7CFFD00210748FFF7D9
:10389000D8FD00210548FFF7CFFD00210348FFF7C1
:1038A000F6FD01210148FFF7EDFD10BD00200040AD
:1038B00010B5002245F6BF510D48FFF7B5FD0021B8
:1038C0000B48FFF7BEFD00210948FFF7B5FD0021B9
:1038D0000748FFF7DCFD00210548FFF7E2FD002166
:1038E0000348FFF7D9FD01210148FFF7CBFD10BDCB
:1038F0000004004010B5002245F6BF510948FFF70B
:1039000093FD00210748FFF79CFD00210548FFF7C4
:10391000BEFD00210348FFF7BFFD01210148FFF76D
:1039200095FD10BD0010004021F00042A2F1605250
:10393000B2F5801F01F0004328BFD2F17F6C0BD994
:103940005FEA001C43EAC20242EB507018BF7047A6
:1039500028BF20F001007047B2F5801FBCBF184699
:1039600070474FEA410C1CF5001F02D2084600F0D8
:1039700076BC70B500F0B4F800000089FFF7F6BF20
:103980004FF00040A0F5800070470000DFF848C10C
:1039900070B51CEA111E1EBF1CEA13159EEA0C0F1F
:1039A00095EA0C0F00F06F8081EA030423EA4C13C0
:1039B0004EEAD47E21EA4C1141F4801143F4801385
:1039C000AE44A1FB024CA0FB0365AEF17F7E36192D
:1039D00055EB0C05A1FB034C4CF10003A0FB021CB2
:1039E00016EB0C06654153F10003094218BF46F07F
:1039F000010613F4007F0BD14FEA03314FEA053083
:103A0000340341EA155140EA16506FF003020AE010
:103A10004FEAC3214FEAC520F40241EA555140EA7A
:103A200056506FF0020202EB2E4201EB025585EA7E
:103A3000CE710AD05FEA440C18BF24F0004450F164
:103A4000000041F1000120EAD47040F2FE7C6245A2
:103A500000D270BDA84214BF4FF080444FF04044E4
:103A6000002E08BF0024BEF1806FA8BFA1F1C041A5
:103A7000BDE8704080F282804FF0000001F1C0414B
:103A800001F0004170479EEA0C0F0CEA131518BFB5
:103A900095EA0C0F06D04FF0000081EA030E0EF0FD
:103AA000004170BD00F01CF88900013E00F007B82D
:103AB00000F009B84FEA430C5FEA5C5C08D081EA89
:103AC000030100F05BB84FEA410C5FEA5C5CF6D1A1
:103AD0004FF00000014970470000FF070000F87F29
:103AE0000EF1020E2EF0030E5EF8046B364205D482
:103AF000012A43EB030515F5001F12D8012841EBFD
:103B0000010C1CF5001F0CD80ED14FEAD17C15F525
:103B1000001F0CEB4C0C0CF1020C08BF4CEBD37CDF
:103B200004E04FF0080C01E04FEAD37C0CEB4C05AD
:103B300026FA05F606F00706B6F1040C06D20EEBDF
:103B4000860CBDE870404CF0010C6047DFE80CF0DB
:103B5000090B02024FF000414FF00000A1F50021D7
:103B600070BD19461046012851EB010418BFD4F569
:103B7000001484BF002001F0004170BD0808A0F5CA
:103B800000114FEA310170472DE9F04101F5801C29
:103B9000BCF5001FC0F2A9804FEA115C21EA0C516C
:103BA0000CF1FD0C41F480115FEA5C0C0CF5C07C5B
:103BB00001D34000494130A4890241EA9051870273
:103BC0008E0E0A0CA45D04FB04F602FB06F6C6F199
:103BD0004046A4FB0662F60D46EA422606FB06F4C2
:103BE000A4FB01235242C3F1404338BF5B1EA6FB36
:103BF00002420024E6FB0324D20B42EA4446A6FB21
:103C00000623A1FB02E2A3FB07E4E3FB614264425B
:103C1000C2F1404E38BFAEF1010EA6FB04234FF0B7
:103C20000002E6FB0E32A2FB03463400E2FB6264B4
:103C3000A1FB06E6A4FB07E8E4FB61687642C8F155
:103C4000405838BFA8F10108A2FB06E4A3FB08E531
:103C5000E2FB6854A1FB05E6A7FB04E8E1FB6486F0
:103C600018F1200556F10006A809A8F11B08B109B2
:103C700008F03F08B8F10A0F40EA86601CD901EB52
:103C80000C51BDE8F08100BFFCF5EEE8E2DDD8D3D1
:103C9000CFCBC7C3C0BDB9B6B4B1AEACA9A7A5A3BD
:103CA000A19F9D9B9A9896959392908F8D8C8B89CE
:103CB0008887868584838281A0FB006800FB01F2EF
:103CC00008EB4208B8EB872807D5341858EB0104F5
:103CD000D5D5401C51F10001D1E7341A78EB01042D
:103CE000CDD4401E71F10001C9E75FEA4C0C5FEAD8
:103CF0009C5C0DD105D34FF0000001F00041BDE800
:103D0000F081BDE8F04170B5FFF7EAFE6DDBFFBE64
:103D1000BDE8F0414FF00000004970470000F87F17
:103D200043004FEAD30C4FEA3C0C43401FBF40070F
:103D30000CF1605113F0FE4F70471CF0006F03D17F
:103D400000200CF0004170470CF0004343EA507033
:103D500010B540EACC0000F03CFA00BF0000009231
:103D60004FEA0001FFF70ABF4FF000414FF000009B
:103D7000A1F500217047000090EA010F48BF81F0D3
:103D8000004100F1AA82421A3CBF801A89184FEA0A
:103D9000D0524FF07F4C1CEA410FA2EBD15318BF19
:103DA0009CEA026F00F03B804FF0004C4CEA002090
:103DB0004CEA012121FA03FC10EB0C0C1ED202F19B
:103DC000FF325FEA1C2040EBC25038BF70471CF046
:103DD0007F0F4FEA400C18BFBCF17F4F38BF7047D0
:103DE000C3F12003994008BF20F00100BCF17F4FD0
:103DF00038BF7047A0F1C04000F031BA4FEA3C0034
:103E0000000A40EBC25028BF1CF0FF0F4FEA400CE5
:103E1000E6D018BFBCF17F4F38BF7047EAE79CEA95
:103E2000026F05D010EA5C0F08BF00F00040704739
:103E300010B500F0CEF900BF64FBBE3E401058BF85
:103E4000C0F14040491058BFC1F140418142EFF3F9
:103E5000008070474FF47F0C1CEAD0121EBF1CEA92
:103E6000D11392EA0C0F93EA0C0F00F0858090EAD0
:103E7000010F48BF42F4807240F4000C41F400008E
:103E80002CF07F4120F07F4000B58142A2EB03027D
:103E90000FF2081CACEB504EC0F100009EF800E0A1
:103EA0004FEA4E0E00FB0EFC38BF49004FEA2C1CB7
:103EB00002F5FA020CFB0EF34FEACE1E4FEA112C6C
:103EC0004FEAC1210EEB635E42EB22420EFB0CFC7B
:103ED0004FEA1C5300FB03114FEA112C4FEA01314A
:103EE0000EFB0CFC4FEADC4C00FB0C11C14228BF5E
:103EF00009184CEB03335DF804EB10EB410143EB85
:103F0000C250B2F57C0F38BF704729D512F0F00FC0
:103F10001CBF00F1C04000F0004070470081828368
:103F20008485868788898B8C8D8E8F9192939596C8
:103F300097999A9C9D9FA0A2A3A5A7A8AAACAEB052
:103F4000B2B3B5B7B9BCBEC0C2C5C7C9CCCED1D457
:103F5000D7D9DCDFE2E6E9ECF0F3F7FAFE00000087
:103F60004FEA400C0CF1807CBCF17E4F28BF7047BB
:103F7000B0F1C04000F073B990EA010F0CEAD11320
:103F800048BF42F48072624538BF634507D213F4DC
:103F90007F0F16D080EA010000F00040704710B596
:103FA00000F017F9097EFC3E00F005B880EA010038
:103FB00000F00040704780EA010000F0004000F08F
:103FC0004EB912F47F0F04BF0248704780EA010027
:103FD00000F045B90000C07F41000B0ED3F19E02F6
:103FE00008D950F400034FEA032323FA02F048BF34
:103FF0004042704710B500F0ECF800BF49922480B1
:10400000002070476FF0004282EA200070470000F5
:1040100010F0004148BF4042B0FA80F310FA03F2BA
:10402000C3F19D030BD051EAC35101EB122053069B
:1040300038BF704700F1010008BF20F00100704751
:10404000B0FA80F310FA03F2C3F19D030AD0D90548
:1040500001EB1220530638BF704700F1010008BF82
:1040600020F001007047000050EA010C00F11380BD
:104070001CF5000F58BFBCF5000F01D488427047F3
:1040800007D710F5000F58BF11F5000F15D488425F
:104090007047894270471CF5000F04D5BCF5000F2E
:1040A000F7D5814270474FF0807C1CEB400F38BF42
:1040B0001CEB410F01D28142704710B500F089F826
:1040C000922449004FF000504FF08051FFF7B6BEE8
:1040D0004FF47F0C1CEAD0121EBF1CEAD11392EAE7
:1040E0000C0F93EA0C0F00F0478090EA010F48BFD5
:1040F00042F480724FF0004C4CEA00204CEA01215F
:1041000002EB0302A0FB0113A2F50002002918BF75
:1041100043F001035B0028BF4FEA330342EB224226
:104120005FEA132C4CEBC2502EBFBCEB436FB2F5D1
:104130007C0F70474FEA036CBCF1004F08BF20F0C2
:104140000100B2F57C0F38BF70470BD582F0FF023B
:1041500012F5803FC8BF704700F1C040D8BF00F0E3
:104160000040704700F5000C5FEA4C0C48BF7047F8
:10417000B0F1C04000F073B890EA010F0CEAD1131F
:1041800048BF42F48072624538BF634504D280EA7A
:10419000010000F00040704710B500F01AF800BFB1
:1041A0008900013E00F007B800F009B85FEA410C51
:1041B0005FEA1C6C08D080EA010000F050B85FEAAA
:1041C000400C5FEA1C6CF6D14FF00040A0F5800077
:1041D00070470EF1020E2EF0030E5EF8044B2442DF
:1041E00004D44FEA4102B2F17F4F11D84FEA4003A5
:1041F000B3F17F4F0CD80ED14FEAD07CB2F17F4F94
:104200000CEB4C0C0CF1020C08BF4CEBD17C04E025
:104210004FF0080C01E04FEAD17C0CEB4C0324FA80
:1042200003F404F00704B4F1040C06D20EEB840C82
:10423000BDE810404CF0010C6047DFE80CF00708C7
:1042400002024FF00040A0F5800010BD0846420079
:1042500018BFD2F1807288BF00F0004010BDFF216E
:1042600041EAD050C005704751EA000C00F11380BC
:104270001CF5000F58BFBCF5000F01D481427047F8
:1042800007D711F5000F58BF10F5000F15D4814264
:104290007047894270471CF5000F04D5BCF5000F2C
:1042A000F7D5884270474FF0807C1CEB410F38BF38
:1042B0001CEB400F01D28842704780EA010081EA7E
:1042C000000180EA0100FFF7F8BE000090EA010F4C
:1042D00048BF81F000413FF556AD421A04D882F044
:1042E0000042A0EB020011444FEAD0524FF07F4C45
:1042F0001CEA410FA2EBD15318BF9CEA026F4AD0CF
:104300004FF0004C4CEA00204CEA012121FA03FC5A
:10431000B0EB0C0C0FD412F0FE0F36D05FEA4C005D
:104320001DD5001240EBC25038BF70471CF03F0F44
:1043300018BF70470BE0A2F101025FEA1C2040EBBE
:10434000C25038BF70471CF07F0F18BF7047C3F1D1
:104350002003994014BF401E20F0010070478008E0
:104360004FEA122308BF7047B0FA80FCA2EB0C02A0
:10437000CCF1280C60FA0CF093EA122F04BF00EB8A
:10438000C25070474FEAC3707047130A5FEADC10EF
:1043900008BF7047F6E79CEA026F04D010EA5C0F92
:1043A00008BF0020704710B5FFF713FF40DFF63E4F
:1043B00081F000407047000000020000000000444F
:1043C00008F8FF1F1500D714CD5D1E5BDB15DF5FFE
:1043D0008FD6C2D88B98CBDC9FC2000000000000B3
:1043E000000000010203040607080900000400029F
:1043F0000006000100050003000780008004800221
:104400008006800180058003800740004004400250
:1044100040064001400540034007C000C004C00200
:10442000C006C001C005C003C00720002004200250
:1044300020062001200520032007A000A004A002E0
:10444000A006A001A005A003A00760006004600210
:1044500060066001600560036007E000E004E002C0
:10446000E006E001E005E003E007100010041002A0
:104470001006100110051003100790009004900220
:104480009006900190059003900750005004500250
:1044900050065001500550035007D000D004D00200
:1044A000D006D001D005D003D00730003004300250
:1044B00030063001300530033007B000B004B002E0
:1044C000B006B001B005B003B00770007004700210
:1044D00070067001700570037007F000F004F002C0
:1044E000F006F001F005F003F007080008040802E8
:1044F00008060801080508030807880088048802E0
:10450000880688018805880388074800480448020F
:1045100048064801480548034807C800C804C802BF
:10452000C806C801C805C803C8072800280428020F
:1045300028062801280528032807A800A804A8029F
:10454000A806A801A805A803A807680068046802CF
:1045500068066801680568036807E800E804E8027F
:10456000E806E801E805E803E8071800180418025F
:1045700018061801180518031807980098049802DF
:10458000980698019805980398075800580458020F
:1045900058065801580558035807D800D804D802BF
:1045A000D806D801D805D803D8073800380438020F
:1045B00038063801380538033807B800B804B8029F
:1045C000B806B801B805B803B807780078047802CF
:1045D00078067801780578037807F800F804F8027F
:1045E000F806F801F805F803F807040004040402CB
:1045F00004060401040504030407840084048402FF
:10460000840684018405840384074400440444022E
:1046100044064401440544034407C400C404C402DE
:10462000C406C401C405C403C4072400240424022E
:1046300024062401240524032407A400A404A402BE
:10464000A406A401A405A403A407640064046402EE
:1046500064066401640564036407E400E404E4029E
:10466000E406E401E405E403E4071400140414027E
:1046700014061401140514031407940094049402FE
:10468000940694019405940394075400540454022E
:1046900054065401540554035407D400D404D402DE
:1046A000D406D401D405D403D4073400340434022E
:1046B00034063401340534033407B400B404B402BE
:1046C000B406B401B405B403B407740074047402EE
:1046D00074067401740574037407F400F404F4029E
:1046E000F406F401F405F403F4070C000C040C02C6
:1046F0000C060C010C050C030C078C008C048C02BE
:104700008C068C018C058C038C074C004C044C02ED
:104710004C064C014C054C034C07CC00CC04CC029D
:10472000CC06CC01CC05CC03CC072C002C042C02ED
:104730002C062C012C052C032C07AC00AC04AC027D
:10474000AC06AC01AC05AC03AC076C006C046C02AD
:104750006C066C016C056C036C07EC00EC04EC025D
:10476000EC06EC01EC05EC03EC071C001C041C023D
:104770001C061C011C051C031C079C009C049C02BD
:104780009C069C019C059C039C075C005C045C02ED
:104790005C065C015C055C035C07DC00DC04DC029D
:1047A000DC06DC01DC05DC03DC073C003C043C02ED
:1047B0003C063C013C053C033C07BC00BC04BC027D
:1047C000BC06BC01BC05BC03BC077C007C047C02AD
:1047D0007C067C017C057C037C07FC00FC04FC025D
:1047E000FC06FC01FC05FC03FC07020002040202BB
:1047F000020602010205020302078200820482020D
:10480000820682018205820382074200420442023C
:1048100042064201420542034207C200C204C202EC
:10482000C206C201C205C203C2072200220422023C
:1048300022062201220522032207A200A204A202CC
:10484000A206A201A205A203A207620062046202FC
:1048500062066201620562036207E200E204E202AC
:10486000E206E201E205E203E2071200120412028C
:10487000120612011205120312079200920492020C
:10488000920692019205920392075200520452023C
:1048900052065201520552035207D200D204D202EC
:1048A000D206D201D205D203D2073200320432023C
:1048B00032063201320532033207B200B204B202CC
:1048C000B206B201B205B203B207720072047202FC
:1048D00072067201720572037207F200F204F202AC
:1048E000F206F201F205F203F2070A000A040A02D4
:1048F0000A060A010A050A030A078A008A048A02CC
:104900008A068A018A058A038A074A004A044A02FB
:104910004A064A014A054A034A07CA00CA04CA02AB
:10492000CA06CA01CA05CA03CA072A002A042A02FB
:104930002A062A012A052A032A07AA00AA04AA028B
:10494000AA06AA01AA05AA03AA076A006A046A02BB
:104950006A066A016A056A036A07EA00EA04EA026B
:10496000EA06EA01EA05EA03EA071A001A041A024B
:104970001A061A011A051A031A079A009A049A02CB
:104980009A069A019A059A039A075A005A045A02FB
:104990005A065A015A055A035A07DA00DA04DA02AB
:1049A000DA06DA01DA05DA03DA073A003A043A02FB
:1049B0003A063A013A053A033A07BA00BA04BA028B
:1049C000BA06BA01BA05BA03BA077A007A047A02BB
:1049D0007A067A017A057A037A07FA00FA04FA026B
:1049E000FA06FA01FA05FA03FA07060006040602B7
:1049F00006060601060506030607860086048602EB
:104A0000860686018605860386074600460446021A
:104A100046064601460546034607C600C604C602CA
:104A2000C606C601C605C603C6072600260426021A
:104A300026062601260526032607A600A604A602AA
:104A4000A606A601A605A603A607660066046602DA
:104A500066066601660566036607E600E604E6028A
:104A6000E606E601E605E603E6071600160416026A
:104A700016061601160516031607960096049602EA
:104A8000960696019605960396075600560456021A
:104A900056065601560556035607D600D604D602CA
:104AA000D606D601D605D603D6073600360436021A
:104AB00036063601360536033607B600B604B602AA
:104AC000B606B601B605B603B607760076047602DA
:104AD00076067601760576037607F600F604F6028A
:104AE000F606F601F605F603F6070E000E040E02B2
:104AF0000E060E010E050E030E078E008E048E02AA
:104B00008E068E018E058E038E074E004E044E02D9
:104B10004E064E014E054E034E07CE00CE04CE0289
:104B2000CE06CE01CE05CE03CE072E002E042E02D9
:104B30002E062E012E052E032E07AE00AE04AE0269
:104B4000AE06AE01AE05AE03AE076E006E046E0299
:104B50006E066E016E056E036E07EE00EE04EE0249
:104B6000EE06EE01EE05EE03EE071E001E041E0229
:104B70001E061E011E051E031E079E009E049E02A9
:104B80009E069E019E059E039E075E005E045E02D9
:104B90005E065E015E055E035E07DE00DE04DE0289
:104BA000DE06DE01DE05DE03DE073E003E043E02D9
:104BB0003E063E013E053E033E07BE00BE04BE0269
:104BC000BE06BE01BE05BE03BE077E007E047E0299
:104BD0007E067E017E057E037E07FE00FE04FE0249
:104BE000FE06FE01FE05FE03FE0701000000803FF9
:104BF00000000000ECFF7F3FD40FC93AB1FF7F3FB8
:104C0000C70F493B4EFF7F3FC1CB963BC4FE7F3F62
:104C1000890FC93B13FE7F3F3053FB3B39FD7F3F7C
:104C200059CB163C39FC7F3F02ED2F3C11FB7F3FF7
:104C3000900E493CC1F97F3F0030623C4AF87F3F0B
:104C40004B517B3CACF67F3F38398A3CE6F47F3FE2
:104C5000B6C9963CF8F27F3F1C5AA33CE3F07F3F75
:104C600069EAAF3CA7EE7F3F9B7ABC3C43EC7F3FB9
:104C7000B00AC93CB8E97F3FA69AD53C05E77F3F1B
:104C80007B2AE23C2BE47F3F2DBAEE3C29E17F3FBB
:104C9000B949FB3C00DE7F3F90EC033DAFDA7F3F3C
:104CA0002F340A3D37D77F3FB87B103D98D37F3FE5
:104CB0002CC3163DD1CF7F3F880A1D3DE2CB7F3FFD
:104CC000CC51233DCCC77F3FF698293D8FC37F3F12
:104CD00007E02F3D2ABF7F3FFC26363D9EBA7F3F2F
:104CE000D56D3C3DEAB57F3F91B4423D0FB17F3F6A
:104CF0002FFB483D0DAC7F3FAF414F3DE3A67F3FCB
:104D00000E88553D91A17F3F4CCE5B3D189C7F3F67
:104D10006814623D78967F3F625A683DB1907F3F4C
:104D200038A06E3DC28A7F3FE9E5743DAB847F3F8A
:104D3000742B7B3D6D7E7F3F6CB8803D08787F3F54
:104D40000ADB833D7B717F3F94FD863DC76A7F3FD1
:104D50000A208A3DEC637F3F6A428D3DE95C7F3FDC
:104D6000B464903DBF557F3FE786933D6D4E7F3FD6
:104D700005A9963DF4467F3F0ACB993D543F7F3FBE
:104D8000F9EC9C3D8D377F3FCF0EA03D9D2F7F3F9F
:104D90008C30A33D87277F3F3052A63D491F7F3F80
:104DA000BA73A93DE4167F3F2B95AC3D580E7F3F6B
:104DB00080B6AF3DA4057F3FBBD7B23DC9FC7E3F67
:104DC000DAF8B53DC7F37E3FDD19B93D9DEA7E3F78
:104DD000C33ABC3D4CE17E3F8D5BBF3DD4D77E3FA7
:104DE000397CC23D34CE7E3FC69CC53D6DC47E3FFE
:104DF00036BDC83D7FBA7E3F86DDCB3D69B07E3F84
:104E0000B7FDCE3D2DA67E3FC81DD23DC99B7E3F3E
:104E1000B93DD53D3D917E3F895DD83D8B867E3F36
:104E2000377DDB3DB17B7E3FC49CDE3DB0707E3F75
:104E30002EBCE13D88657E3F76DBE43D385A7E3FFF
:104E40009AFAE73DC14E7E3F9A19EB3D23437E3FE0
:104E50007638EE3D5E377E3F2E57F13D722B7E3F1A
:104E6000C075F43D5E1F7E3F2C94F73D24137E3FBA
:104E700073B2FA3DC2067E3F92D0FD3D38FA7D3FC7
:104E80004577003E88ED7D3F2E06023EB1E07D3F36
:104E90000295033EB2D37D3FC223053E8CC67D3FC3
:104EA0006EB2063E40B97D3F0541083ECCAB7D3F2A
:104EB00086CF093E309E7D3FF35D0B3E6E907D3F79
:104EC0004AEC0C3E85827D3F8B7A0E3E74747D3FAA
:104ED000B708103E3D667D3FCC96113EDE577D3FC4
:104EE000CA24133E59497D3FB2B2143EAC3A7D3FCD
:104EF0008340163ED82B7D3F3DCE173EDD1C7D3FC7
:104F0000E05B193EBC0D7D3F6BE91A3E73FE7C3FB2
:104F1000DE761C3E03EF7C3F38041E3E6CDF7C3F98
:104F20007B911F3EAECF7C3FA51E213EC9BF7C3F7B
:104F3000B6AB223EBDAF7C3FAD38243E8A9F7C3F5E
:104F40008CC5253E318F7C3F5152273EB07E7C3F41
:104F5000FCDE283E086E7C3F8D6B2A3E3A5D7C3F2E
:104F600004F82B3E444C7C3F61842D3E283B7C3F23
:104F7000A2102F3EE5297C3FC99C303E7A187C3F29
:104F8000D428323EE9067C3FC4B4333E31F57B3F42
:104F90009840353E53E37B3F50CC363E4DD17B3F6E
:104FA000EC57383E20BF7B3F6CE3393ECDAC7B3FB6
:104FB000CF6E3B3E539A7B3F15FA3C3EB2877B3F18
:104FC0003E853E3EEA747B3F4910403EFC617B3F9C
:104FD000379B413EE74E7B3F0726433EAB3B7B3F43
:104FE000B9B0443E48287B3F4D3B463EBE147B3F14
:104FF000C2C5473E0E017B3F1850493E37ED7A3F10
:105000004FDA4A3E3AD97A3F67644C3E16C57A3F3A
:1050100060EE4D3ECBB07A3F38784F3E599C7A3F98
:10502000F101513EC1877A3F898B523E02737A3F2C
:105030000115543E1C5E7A3F589E553E10497A3FFA
:105040008F27573EDD337A3FA4B0583E841E7A3F07
:1050500097395A3E04097A3F6AC25B3E5EF3793F54
:105060001A4B5D3E91DD793FA8D35E3E9DC7793FE7
:10507000135C603E83B1793F5CE4613E439B793FC2
:10508000836C633EDC84793F86F4643E4E6E793FE8
:10509000667C663E9A57793F2204683EC040793F5D
:1050A000BA8B693EBF29793F2F136B3E9812793F27
:1050B0007F9A6C3E4AFB783FAB216E3ED6E3783F49
:1050C000B2A86F3E3BCC783F942F713E7BB4783FC3
:1050D00051B6723E939C783FE83C743E8684783F9C
:1050E0005AC3753E526C783FA649773EF853783FD5
:1050F000CCCF783E773B783FCB557A3ED122783F74
:10510000A4DB7B3E040A783F56617D3E10F1773F79
:10511000E1E67E3EF7D7773F2236803EB7BE773F47
:10512000C0F8803E51A5773F4ABB813EC58B773F93
:10513000C07D823E1372773F2240833E3A58773FCC
:105140007002843E3C3E773FAAC4843E1724773FDA
:10515000CE86853ECC09773FDF48863E5BEF763FC3
:10516000DA0A873EC4D4763FC1CC873E07BA763F81
:10517000938E883E249F763F5050893E1B84763F15
:10518000F8118A3EEC68763F8AD38A3E974D763F87
:1051900007958B3E1B32763F6E568C3E7A16763FD5
:1051A000C0178D3EB3FA753FFCD88D3EC6DE753F05
:1051B000229A8E3EB3C2753F325B8F3E7BA6753F0F
:1051C0002C1C903E1C8A753F10DD903E976D753FFC
:1051D000DD9D913EED50753F945E923E1D34753FCE
:1051E000351F933E2717753FBFDF933E0BFA743F81
:1051F00031A0943EC9DC743F8D60953E62BF743F20
:10520000D220963ED5A1743F00E1963E2284743FA1
:1052100017A1973E4966743F1661983E4B48743F0C
:10522000FE20993E272A743FCEE0993EDD0B743F65
:1052300086A09A3E6EED733F27609B3ED9CE733FAA
:10524000AF1F9C3E1FB0733F20DF9C3E3F91733FDA
:10525000789E9D3E3972733FB85D9E3E0E53733FFC
:10526000DF1C9F3EBE33733FEEDB9F3E4714733F10
:10527000E59AA03EACF4723FC259A13EEBD4723F16
:105280008718A23E04B5723F33D7A23EF894723F0E
:10529000C595A33EC774723F3F54A43E7054723FFD
:1052A0009F12A53EF433723FE5D0A53E5213723FE4
:1052B000128FA63E8CF2713F254DA73E9FD1713FC4
:1052C0001F0BA83E8EB0713FFEC8A83E578F713F9E
:1052D000C486A93EFB6D713F6F44AA3E7A4C713F74
:1052E0000102AB3ED42A713F77BFAB3E0809713F44
:1052F000D47CAC3E17E7703F153AAD3E02C5703F17
:105300003CF7AD3EC6A2703F49B4AE3E6680703FEA
:105310003A71AF3EE15D703F102EB03E373B703FBB
:10532000CBEAB03E6718703F6BA7B13E73F56F3F95
:10533000EF63B23E5AD26F3F5820B33E1BAF6F3F70
:10534000A5DCB33EB88B6F3FD698B43E30686F3F54
:10535000EC54B53E83446F3FE610B63EB0206F3F3D
:10536000C3CCB63EBAFC6E3F8488B73E9ED86E3F33
:105370002A44B83E5DB46E3FB2FFB83EF88F6E3F30
:105380001EBBB93E6D6B6E3F6E76BA3EBE466E3F3B
:10539000A031BB3EEB216E3FB6ECBB3EF2FC6D3F55
:1053A000AFA7BC3ED5D76D3F8B62BD3E93B26D3F7C
:1053B0004A1DBE3E2D8D6D3FEBD7BE3EA1676D3FB2
:1053C0006F92BF3EF2416D3FD54CC03E1D1C6D3FFC
:1053D0001E07C13E24F66C3F48C1C13E07D06C3F5A
:1053E000557BC23EC5A96C3F4435C33E5E836C3FCE
:1053F00015EFC33ED45C6C3FC8A8C43E24366C3F56
:105400005C62C53E500F6C3FD21BC63E58E86B3FF6
:1054100029D5C63E3BC16B3F628EC73EFB996B3FB1
:105420007C47C83E95726B3F7700C93E0C4B6B3F83
:1054300053B9C93E5E236B3F1072CA3E8CFB6A3F74
:10544000AE2ACB3E95D36A3F2CE3CB3E7BAB6A3F83
:105450008B9BCC3E3C836A3FCA53CD3ED95A6A3FB0
:10546000EA0BCE3E52326A3FEAC3CE3EA7096A3FFC
:10547000CA7BCF3ED7E0693F8A33D03EE4B7693F6D
:105480002AEBD03ECC8E693FAAA2D13E9165693FFE
:10549000095AD23E323C693F4811D33EAE12693FB1
:1054A00067C8D33E07E9683F647FD43E3CBF683F8E
:1054B0004136D53E4C95683FFDECD53E396B683F93
:1054C00099A3D63E0341683F135AD73EA816683FBA
:1054D0006B10D83E2AEC673FA3C6D83E87C1673F12
:1054E000B97CD93EC196673FAD32DA3ED86B673F93
:1054F00080E8DA3ECA40673F319EDB3E9915673F40
:10550000C153DC3E45EA663F2E09DD3ECCBE663F18
:1055100079BEDD3E3093663FA273DE3E7167663F23
:10552000A928DF3E8E3B663F8DDDDF3E880F663F5C
:105530004F92E03E5EE3653FEE46E13E10B7653FC9
:105540006AFBE13EA08A653FC4AFE23E0B5E653F69
:10555000FA63E33E5431653F0E18E43E7904653F3B
:10556000FECBE43E7BD7643FCB7FE53E59AA643F48
:105570007533E63E147D643FFBE6E63EAC4F643F88
:105580005D9AE73E2122643F9C4DE83E73F4633F01
:10559000B700E93EA1C6633FAEB3E93EAC98633FB6
:1055A0008166EA3E956A633F3019EB3E5A3C633FA1
:1055B000BBCBEB3EFC0D633F217EEC3E7BDF623FCD
:1055C0006330ED3ED7B0623F80E2ED3E1082623F35
:1055D0007994EE3E2653623F4C46EF3E1A24623FDA
:1055E000FBF7EF3EEAF4613F85A9F03E98C5613FC5
:1055F000EA5AF13E2296613F290CF23E8A66613FEB
:1056000043BDF23ED036613F386EF33EF206613F55
:10561000071FF43EF2D6603FB1CFF43ECFA6603F05
:105620003580F53E8976603F9330F63E2146603FF7
:10563000CBE0F63E9615603FDC90F73EE9E45F3F35
:10564000C840F83E19B45F3F8EF0F83E27835F3FB5
:105650002DA0F93E12525F3FA54FFA3EDB205F3F7F
:10566000F7FEFA3E81EF5E3F22AEFB3E05BE5E3F97
:10567000275DFC3E678C5E3F040CFD3EA65A5E3FF4
:10568000BBBAFD3EC3285E3F4A69FE3EBEF65D3FA3
:10569000B217FF3E97C45D3FF3C5FF3E4D925D3F9D
:1056A000063A003FE15F5D3FFF90003F532D5D3FB5
:1056B000E4E7003FA3FA5C3FB53E013FD1C75C3F42
:1056C0007395013FDD945C3F1CEC013FC7615C3F7B
:1056D000B142023F8E2E5C3F3299023F34FB5B3F6A
:1056E0009FEF023FB8C75B3FF845033F1A945B3F0B
:1056F0003D9C033F5A605B3F6DF2033F792C5B3F5B
:105700008948043F75F85A3F919E043F50C45A3F60
:1057100084F4043F09905A3F624A053FA05B5A3F18
:105720002CA0053F16275A3FE2F5053F6AF2593F84
:10573000824B063F9CBD593F0EA1063FAD88593FA5
:1057400086F6063F9C53593FE84B073F6A1E593F78
:1057500036A1073F17E9583F6FF6073FA1B3583FFF
:10576000924B083F0B7E583FA1A0083F5348583F3B
:105770009BF5083F7912583F7F4A093F7FDC573F2E
:105780004E9F093F63A6573F09F4093F2670573FD4
:10579000AD480A3FC739573F3D9D0A3F4803573F31
:1057A000B7F10A3FA7CC563F1C460B3FE595563F45
:1057B0006B9A0B3F025F563FA5EE0B3FFE27563F0D
:1057C000C9420C3FD9F0553FD7960C3F93B9553F8E
:1057D000D0EA0C3F2C82553FB33E0D3FA44A553FC3
:1057E00081920D3FFB12553F38E60D3F31DB543FB0
:1057F000DA390E3F47A3543F658D0E3F3B6B543F54
:10580000DBE00E3F0F33543F3B340F3FC3FA533FAF
:1058100084870F3F55C2533FB8DA0F3FC789533FC4
:10582000D52D103F1851533FDC80103F4918533F8E
:10583000CDD3103F59DF523FA726113F49A6523F13
:105840006B79113F186D523F19CC113FC633523F4F
:10585000B01E123F54FA513F3071123FC2C0513F47
:105860009AC3123F1087513FEE15133F3D4D513FF4
:105870002A68133F4A13513F50BA133F37D9503F5C
:105880005F0C143F039F503F585E143FAF64503F7E
:1058900039B0143F3B2A503F0402153FA8EF4F3F59
:1058A000B753153FF4B44F3F54A5153F1F7A4F3FF0
:1058B000D9F6153F2B3F4F3F4748163F17044F3F40
:1058C0009F99163FE4C84E3FDFEA163F908D4E3F4A
:1058D000073C173F1C524E3F188D173F89164E3F0D
:1058E00012DE173FD5DA4D3FF52E183F029F4D3F90
:1058F000C07F183F10634D3F73D0183FFD264D3FCA
:105900000F21193FCBEA4C3F9471193F79AE4C3FC0
:1059100000C2193F08724C3F55121A3F78354C3F70
:1059200093621A3FC7F84B3FB8B21A3FF8BB4B3FE0
:10593000C6021B3F097F4B3FBB521B3FFA414B3F07
:1059400099A21B3FCC044B3F5FF21B3F7FC74A3FEE
:105950000C421C3F138A4A3FA2911C3F874C4A3F8E
:105960001FE11C3FDC0E4A3F84301D3F12D1493FEE
:10597000D17F1D3F2993493F06CF1D3F2155493F08
:10598000221E1E3FFA16493F266D1E3FB3D8483FE0
:1059900012BC1E3F4E9A483FE50A1F3FCA5B483F74
:1059A0009F591F3F271D483F41A81F3F65DE473FC6
:1059B000CBF61F3F849F473F3B45203F8560473FD5
:1059C0009393203F6721473FD2E1203F2AE2463FA1
:1059D000F92F213FCEA2463F067E213F5463463F2A
:1059E000FBCB213FBB23463FD719223F03E4453F72
:1059F0009967223F2DA4453F43B5223F3964453F77
:105A0000D302233F2624453F4B50233FF5E3443F39
:105A1000A99D233FA5A3443FEEEA233F3763443FBC
:105A20001A38243FAB22443F2C85243F00E2433FF9
:105A300025D2243F38A1433F041F253F5160433FF7
:105A4000CB6B253F4C1F433F77B8253F29DE423FB4
:105A50000A05263FE89C423F8451263F895B423F2E
:105A6000E39D263F0B1A423F2AEA263F70D8413F6A
:105A70005636273FB796413F6882273FE154413F62
:105A800061CE273FEC12413F401A283FDAD0403F19
:105A90000566283FA98E403FB0B1283F5C4C403F8F
:105AA00041FD283FF009403FB848293F67C73F3FC5
:105AB0001594293FC0843F3F57DF293FFC413F3FBA
:105AC000802A2A3F1BFF3E3F8E752A3F1BBC3E3F6C
:105AD00082C02A3FFF783E3F5B0B2B3FC5353E3FE0
