:10009700120408802B1201258F25E52524FE601800
:1000A70014602D146050240370EB0524E5247002BE
:1000B7000523750D05FB800DE52415247002152316
:1000C700750D05AB24AA237D017F011203B880C5F6
:1000D7007C00AD24E4FFFE1201E17F057E001203E0
:1000E70035E523FD7C007F017E001201E17F057E5F
:1000F70000120335809FE4FFFE1201867523008FEF
:10010700247F017E00120186EFFEEE4223750D0566
:0E011700AB24AA237D017F011203B802009CD5
:06041C00C2A58F80D2A7EB
:080422007F027EEFDEFEDFFC2D
:01042A0022AF
:0A044E00C2A612041CC2A702042279
:10037C00CFCDCFCECCCE1200427C007D0A120042F3
:04038C00ED2430FF2D
:0A039000D2A612041CC2A702042228
:1003F200AE07BE0104ED148006BE0209ED243F449F
:0604020080FF12044E22EF
:100408007F3812044E7F0C12044E7F0612044E7F72
:040418000102044E8B
:0A045800AC031203F2AF040203909C
:060359008B0D8A0E890FD6
:10035F001203F2E4FDAB0DAA0EA90F8D8275830077
:0C036F00120003FF60061203900D80E9ED
:01037B00225F
:0C02D9007F0AEA24FFFDE434FFFC7E00F5
:0802E5008E0E8F0F8C108D119D
:1002ED007F017E00E4FBEBC39511E5106480F8748B
:0E02FD008098500AAC0EAD0F1200300B80E856
:01030B0022CF
:0403B8008A0B8B0C15
:1003BC001203F2AA0DEAD39400400D1202D9AC0B31
:0803CC00AD0C12037C1A80ED58
:0103D4002206
:10022E001203F2C3EA64809480400B7F2B1203907A
:10023E008A178B18800E7F2D120390C3E49BF5183E
:10024E00E49AF517AA16EAD39400400D1202D9AC1F
:09025E0017AD1812037C1A80EDA3
:010267002274
:040268008A1B8B1C46
:10026C001203F2AA1DEAD3940040297F101202DB7C
:10027C00AC1BAD1CCFCDCFCECCCE120042EF540F69
:10028C00FEC3940AEE5004243080022437FF12037C
:04029C00901A80D163
:0102A000223B
:0402A1008A208B2103
:1002A5001203F2AA22EAD394004028EA24FFFDE4CF
:1002B50034FFFC7F027E001202E5AC20AD21CFCDDC
:1002C500CFCECCCE120042EF54012430FF12039062
:0302D5001A80D2BA
:0102D8002203
:10033500E4FDFCC3ED9FEE6480F8EC6480985013F7
:0C034500750D02750EC7D50EFDD50DFA22
:070351000DBD00010C80E06E
:010358002282
:10012500E4F50920B1137F0AFE12033530B1FD7FD6
:100135000A7E0012033575090120B0147F0A7E007E
:1001450012033530B0FD7F0A7E00120335750902B2
:1001550020B2147F0A7E0012033530B2FD7F0A7E7D
:100165000012033575090320B3147F0A7E001203BC
:100175003530B3FD7F0A7E00120335750904AF09DA
:010185002257
:09046200D2A0D2A1C2A0C2A122C5
:07046B00C2A0D2A1D2A02221
:02030C00AD073B
:10030E00E4FB74807E00A803088006CEA2E713CE1D
:10031E0013D8F8FFEDF582EF558224FF92A0D2A1FB
:06032E00C2A10BBB08DCBC
:0103340022A6
:10039A00E4FFD2A0FED2A130A00D7480A806088086
:0D03AA0002C313D8FC4207C2A10EBE08E832
:0103B7002223
:0B044300EE4F24FF92A0D2A1C2A12224
:0B042B00D2A0D2A1A2A0E433FFC2A126
:0104360022A3
:1003D5005752495445204F4B2100202020202020F2
:0D03E5002020200052454144204F4B2100B4
:1001E1008E098F0A8C0B8D0C1204627FA07E001287
:1001F100030C12042BAF0AAE0912030C12042BAF2D
:100201000CAE0B12030C12042B12046B7BFF7A034E
:1002110079D57D017F021203597FE87E03120335F0
:0D0221007BFF7A0379DF7D017F0202035924
:040186008E098F0A45
:10018A001204627FA07E0012030C12042BAF0AAE87
:10019A000912030C12042B1204627FA17E001203BF
:1001AA000C12042B12039A8F0B7F017E0012044358
:1001BA0012046B7BFF7A0379E97D017F02120359EE
:1001CA007FE87E031203357BFF7A0379DF7D017FA7
:0601DA0002120359AF0BF5
:0101E00022FC
:03000000020437C0
:0C043700787FE4F6D8FD7581250200975F
:10000300BB010CE58229F582E5833AF583E02250B2
:1000130006E92582F8E622BBFE06E92582F8E222FC
:0D002300E58229F582E5833AF583E4932216
:10003000EF8DF0A4A8F0CF8CF0A428CE8DF0A42EE4
:02004000FE229E
:10004200BC000BBE0029EF8DF084FFADF022E4CCA2
:10005200F875F008EF2FFFEE33FEEC33FCEE9DEC6B
:10006200984005FCEE9DFE0FD5F0E9E4CEFD22EDB1
:10007200F8F5F0EE8420D21CFEADF075F008EF2FFB
:10008200FFED33FD4007985006D5F0F222C398FDEC
:050092000FD5F0EA2289
:00000001FF
